:020000041000EA
:1000000000B5324B212058609868022188439860DF
:10001000D860186158612E4B002199600221596106
:100020000121F02299502B49196001219960352056
:1000300000F044F80222904214D00621196600F024
:1000400034F8196E01211966002018661A6600F04E
:100050002CF8196E196E196E052000F02FF8012189
:100060000842F9D1002199601B49196000215960AB
:100070001A491B48016001219960EB211966A021F2
:10008000196600F012F800219960164914480160C1
:100090000121996001BC002800D000471248134993
:1000A000086003C880F30888084703B5996A0420EC
:1000B0000142FBD001200142F8D103BD02B5186610
:1000C0001866FFF7F2FF186E186E02BD00000240BE
:1000D000000000180000070000035F00212200005C
:1000E000F4000018222000A00001001008ED00E03C
:1000F00000000000000000000000000074B24E7A12
:1001000000200420F7010010CB010010CD010010E9
:10011000C9010010C9010010C9010010C901001077
:10012000C9010010C9010010C9010010CF01001061
:10013000C9010010C9010010D1010010D301001045
:10014000C1010010C1010010C1010010C101001067
:10015000C1010010C1010010C1010010C101001057
:10016000C1010010C1010010C1010010C101001047
:10017000C1010010C1010010C1010010C101001037
:10018000C1010010C1010010C1010010C101001027
:10019000C1010010C1010010C1010010C101001017
:1001A000C1010010C1010010C1010010C101001007
:1001B000C1010010C1010010C1010010C1010010F7
:1001C000EFF30580103800BE00BE00BE00BE00BECA
:1001D00000BE00BEF2EB8871ACBB0010D4BB0010B7
:1001E0003802001090A31AE71E481F49086006C88D
:1001F00081F3088810471D480068002801D019487D
:10020000F3E70DA40ECC002902D000F012F8F9E7B4
:100210001749184A002000E001C19142FCD116495B
:100220008847164988471649884700BEFDE701C937
:1002300001C29A42FBD37047D4BB0010C00000201B
:10024000284200203CFD0010000004200000042093
:100250003CFD0010001004200010042000000000ED
:10026000704700000000000008ED00E0000000D032
:1002700028420020C4740020AD500010D5020010A8
:10028000A5500010F8B5C04606480749091A8B105A
:10029000C90FC91810B5491003D0044B002B00D06A
:1002A000984710BD2842002028420020000000008E
:1002B000054B10B5002B03D00449054800E000BFF2
:1002C000FFF7E2FF10BDC046000000006C580020A0
:1002D00090B2001000B585B0144803AB02AA01A982
:1002E00002F032FA002803D11148104900F0EEFE66
:1002F000039A0299019802F04BF90A2001F07CFD63
:1003000005F0DEFD0B4805F051FE01236A46002092
:10031000938103A906F084FA01200021404206F0EF
:10032000F9FA002007F03EF9F6E7C046C0D4010014
:1003300090B200103D0300107047C046F0B50A208F
:1003400095B001F059FD6946464B6A4631CB31C143
:100350001B6801200B60642108F052FA02236A46F0
:1003600004A91382012008F04FFA04F0DDFF0021F8
:10037000022005F07BFA00F067FD192000F080FEF6
:10038000D023802280266C271B069204364C374DE2
:100390005A62760001200021404208F0FDFC00F086
:1003A000A9FC002007F0A2F80028F3D02168002063
:1003B000721A691807F0A8F82368C01820606D2821
:1003C000E8D9EB5DFF2B02D000232360E2E7923BEC
:1003D000EB5CAA2BF8D1D023802225491B0692047E
:1003E0005A610B002A0051CA51C351CA51C351CAA4
:1003F00051C3204E2B003200243391CB91C291CBBC
:1004000091C291CB91C21C4C4835230085CD85C348
:1004100085CD85C385CD85C3242218480AF058F9B7
:100420002422310016480AF053F9210024221548ED
:100430000AF04EF9144B04AA03CB03C21B7804A99B
:1004400013700020082207F0EBF8002007F0AAF84C
:10045000642001F0D1FC0121012002F0FDFA30BF3F
:10046000FDE7C046BCB500108873002088720020EC
:1004700074530020185800203C580020C4B20010CB
:10048000CCB20010D8B20010E0B20010F0B5CE46E9
:10049000474680B5C9B005AE05000F0032001D4BC0
:1004A00013CB13C23900280009F056FE12236B4407
:1004B000994604AB9846040019004A46280008F003
:1004C00083F94B464246A00080591B881288124986
:1004D00002900197009508A804F088FD013C0200F5
:1004E00008A9002007F09CF8E4B2002007F05AF8B1
:1004F000012C04D949B0C0BCB946B046F0BD3900A2
:10050000280009F03FFE0028F4D11E22034907F01D
:1005100087F8EFE7CCB50010ECB2001020B3001064
:1005200010B5094CC0B00B0002002100684604F071
:100530005DFD69460200002007F072F8002007F018
:1005400031F840B010BDC04640B3001070B5040093
:100550000D00160009F000FE012816D0022806D072
:100560002900200009F00EFE002809D070BD3000DF
:1005700000F0FCFA2900200009F004FE0028F5D163
:100580001E22044907F04CF8F0E7300000F050F864
:10059000E6E7C04620B300100048704718B70010C7
:1005A00000487047DCB5001070B5002823D004283F
:1005B0002CD8174B8000C55828000AF03FFCC0B269
:1005C000041C1F2812D8E4B2002808D00023114AC6
:1005D000E95C01331180D9B202328C42F8D8C022D2
:1005E0000134E3B25B00920013430CE01F24E4B239
:1005F0000028EBD1F3E7064B02221968054803F007
:100600009BF8C1239B000448038070BD0020FCE7D9
:10061000B03B00202E4A00202C4A002000487047A2
:1006200040B600107047C046002070477047C04673
:10063000F0B58478C57883B01A2C00D12BE21A2D3E
:1006400000D13CE206791A2E00D11FE243791A2B21
:1006500000D11BE283791A2B00D117E2C3791A3B30
:100660005A425341DBB2162C00D121E22900162D4B
:1006700000D148E2162E00D10AE24279162A00D1B2
:1006800006E28279162A00D102E2C279163A57426E
:100690007A41D2B29446042C00D105E2042900D15B
:1006A00037E2042E00D146E24179042900D1D4E199
:1006B0008179042900D1D0E1C179042900D1CCE1AC
:1006C0000027072C00D12FE2072D00D1DCE1072EF7
:1006D00000D1D9E14179072900D1D5E181790729F4
:1006E00000D1D1E1C17907390A0051425141C9B263
:1006F000634500D1AFE1002B00D066E17F23C54AFE
:100700005370B94200D167E1002F00D1B3E17F23DC
:100710005B4213702C2C00D1AFE12C2D00D1ACE149
:100720002C2E00D1A9E143792C2B00D1A5E18379AE
:100730002C2B00D1A1E1C379D1792C2B00D19DE1E3
:1007400093681B020B4301218B430178CC0700D433
:100750007EE1022423431D0A15721D022D0E5572DF
:100760001D0ED37195728478152C00D16DE1C4787B
:10077000152C00D169E10479152C00D165E144798B
:10078000152C00D161E18479152C00D15DE1C4798B
:10079000152C00D159E10424A3431D0A15721D0232
:1007A0002D0E55721D0ED37195728478082C00D1D0
:1007B00048E1C478082C00D144E10479082C00D128
:1007C00040E14479082C00D13CE18479082C00D127
:1007D00038E1C479082C00D134E10824A3431D0A70
:1007E00015721D022D0E55721D0ED37195728478EF
:1007F000292C00D122E1C478292C00D11EE10479F2
:10080000292C00D11AE14479292C00D116E18479F0
:10081000292C00D112E1C479292C00D10EE17E4CA3
:100820002340890700D4F1E08021C9000B431C0A52
:1008300014721C02240E54721C0ED37194728178AF
:10084000192900D1DEE0C178192900D1DAE0017957
:10085000192900D1D6E04179192900D1D2E0817956
:10086000192900D1CEE0C179192900D1CAE06B491C
:100870000B401C0A14721C02240E54721C0ED371FD
:10088000947281781E2900D1B8E0C1781E2900D168
:10089000B4E001791E2900D1B0E041791E2900D1D0
:1008A000ACE081791E2900D1A8E0C1791E2900D1D0
:1008B000A4E05B490B401C0A14721C02240E547203
:1008C0001C0ED37194728178202900D192E0C178F6
:1008D000202900D18EE00179202900D18AE04179D8
:1008E000202900D186E08179202900D182E0C179D8
:1008F000202900D17EE04B490B401C0A14721C02D7
:10090000240E54721C0ED371947281781F2900D169
:100910006CE0C1781F2969D001791F2966D041791F
:100920001F2963D081791F2960D0C1791F295DD02B
:100930003D490B401C0A14721C02240E54721C0EFA
:10094000D3719472817821294CD0C178212949D062
:100950000179212946D04179212943D08179212962
:1009600040D0C17921293DD030490B401C0A147276
:100970001C02240E54721C0ED371947281784C297F
:100980002CD0C1784C2929D001794C2926D0417925
:100990004C2923D081794C2920D0C1794C291DD0F4
:1009A00023490B40D11DD3711A0A4A701A02120E44
:1009B0001B0ECB708A70002048221E4906F030FEC4
:1009C000002006F0EFFD03B0F0BD7F23114A5B422B
:1009D0005370B94200D097E600239AE6802149027D
:1009E0000B43DFE7802109020B43BFE78021C901E8
:1009F0000B439FE7802189010B437EE7802149015A
:100A00000B4358E7802109010B4332E70A490B40A9
:100A10000DE7C046E4530020FFFDFFFFFFF7FFFF97
:100A2000FFEFFFFFFFDFFFFFFFBFFFFFFF7FFFFFC6
:100A3000FFFFFEFF38450020FFFBFFFF8024A400DE
:100A40002343EEE608242343C9E604242343A4E613
:100A50000224A3437FE6002351E60127072C00D0A0
:100A600032E601219C456ED03F4A002B2DD17F27D5
:100A7000577000292ED17F234BE6D17993681B0252
:100A80000B4301210B4360E6012131E60123EAE536
:100A900001229446FFE5290001230679162D00D096
:100AA000E8E501229446FCE5072D15D001270EE666
:100AB000042D19D0042E4AD001229446F4E5162CB8
:100AC0000FD01A2101230679D4E581235370002920
:100AD000D1D00023137020E663450FD001210127F8
:100AE00009E601230679E5E7012201279446072E4E
:100AF00000D0EFE53900002B00D1FFE500231A4AB2
:100B00005370002305E6042CCBD101220127944623
:100B1000DDE5072CA5D00127072E00D0DAE501215D
:100B20009C4500D0E7E5E9E7002163459CD17F23A0
:100B30000D4A1380F1E50127072C00D0C4E59C4540
:100B400001D0390090E70023074A1380E5E5072D1F
:100B500003D0012201279446BCE501210F00002BA0
:100B600000D1CBE5CAE7C046E453002070B50600CB
:100B7000012002253056755782B0002855DC00D080
:100B800088E0534CA070002D38DC64D1A368257137
:100B9000E17932781B020B43D1071CD580210B432E
:100BA00091071CD540210B4351071CD510210B4345
:100BB000D1061CD520210B4312071CD580225201DF
:100BC0001343190A21721902E371090E1B0E617297
:100BD000A37202B070BD80218B439107E2D4402103
:100BE0008B435107E2D410218B43D106E2D420215C
:100BF0008B431207E2D4374A1340E2E7280002F0A1
:100C0000F5FB354A354B02F086FB02F033FC344AE3
:100C1000344B02F080FB02000B003348334902F0F2
:100C200056FB02F0FBFB45B2B0E702F0DFFB2A4ABD
:100C30002A4B02F070FB02F01DFC294A294B02F0FE
:100C40006AFB02000B002848284902F040FB02F032
:100C5000E5FB40B295E7280002F0C8FB1E4A244B92
:100C600002F059FB02F006FC1D4A1E4B02F053FB3A
:100C700002000B001C481D4902F029FB8023009054
:100C80000191009A1B061000019AD11802F0C6FBD0
:100C900045B27BE702F0AAFB0F4A154B02F03BFB83
:100CA00002F0E8FB0E4A0F4B02F035FB02000B008E
:100CB0000D480E4902F00BFB802300900191009A31
:100CC0001B061000019AD11802F0A8FB40B258E7A9
:100CD000E4530020FFEFFFFFE4E177B21F52A7BF0C
:100CE000E10B93A9820B6040D5E76A2BF6D35F40F6
:100CF0001F52A73FF0B5C64600B586B001F028FAEE
:100D0000022304000D0023492600CB562F009C46E9
:100D100004232148CB56984602684368B61A9F417F
:100D2000002F02D11D4B9E420BD90022046045606A
:100D30001B4B9A56624521D01A4A604618704346AA
:100D40001370012300228868CC7900022043CB561F
:100D50008A560590887904900520085603904046ED
:100D60000290C978002049B20191614600910321A7
:100D700006F040FE06B080BCB846F0BD0020094A2F
:100D800010564045D9D100208046844688700871AD
:100D9000D3E7C046E4530020184400204FC30000AE
:100DA000BD740020BE740020F0B52425A1B004005D
:100DB0002422002104A802F0B9FC242200210EA85C
:100DC00002F0B4FC2422002117A802F0AFFC242278
:100DD00001AB04A9194801950295039509F08EFC11
:100DE000242202AB0EA9164809F088FC242203AB8A
:100DF000144817A909F082FC032220005B270F2466
:100E00000123944613356C446D446F44E25C012128
:100E1000002A0AD1EA5C0131002A06D1FA5C1100ED
:100E20004E1EB14166464942314001330270417065
:100E30000230252BEAD121B0F0BDC046C4B200106B
:100E4000CCB20010D8B2001010B50248FFF7ACFFCA
:100E500010BDC046384500201300002010B564299D
:100E600000D010BD10221900024802F065FC0120DC
:100E7000F7E7C046C43B002010B5024804F07CFDF3
:100E8000012010BDC43B002010B50138C0B204F0F1
:100E900067FE10BD10B50138C0B204F081FE10BD70
:100EA0000138C0B243000D4A1B181B019B18D02209
:100EB00030B5120699785068DC7853680122150025
:100EC000A5408A402B405C42634110404242504161
:100ED0005B001843431E9841C0B230BD1072002021
:100EE0000138C0B24300044A1B181B019B18587BF1
:100EF000012358407047C0461072002010B50138D9
:100F0000C0B204F071FE10BD7047C046F0B50D00D0
:100F100083B001AF040039002800160008F01EFB62
:100F20007A780023002A04D0FB78013B5A425341CF
:100F3000DBB2013C32002900E0B204F071FE03B0E4
:100F4000F0BDC04610B582B06C46248A01380094CA
:100F5000C0B204F0F1FE02B010BDC04610B50138B9
:100F6000C0B204F031FF10BD10B50138C0B204F0BA
:100F7000B3FE10BD094A83009A1810B514684022C8
:100F8000544080322240064CC000A44663441A609C
:100F9000044B9C466044416010BDC04604C0014003
:100FA00004D0014000400140074B8000C3181B687B
:100FB000C90092000A435A400C231340034A944646
:100FC000604403607047C04604C0014004D0014043
:100FD000064BC000C3181B6809045940C0239B027C
:100FE0001940034B9C466044016070470440014037
:100FF00004500140064BC000C3181B680902594049
:10100000C0239B001940034B9C466044016070471D
:101010000440014004500140064BC000C3181B6847
:1010200009035940C0239B011940034B9C4660446F
:10103000016070470440014004500140054B8000AE
:10104000C3181B684B4001211940034B9C46604468
:101050000160704704C0014004D00140064B80008D
:10106000C3181B68054A090159409446302360445F
:101070000B4003607047C04604C0014004D00140EB
:101080000123D0228340120693629361094A8300B0
:101090009A1811684022514080320A400649C00027
:1010A0008C4663441A60054B9C46052360444360AC
:1010B0007047C04604C0014004D0014000400140D8
:1010C0008023DB051868000F7047C0460FB400B5D9
:1010D000084883B004F078F9049B002B07D005A9D9
:1010E0001800019103F0AAFF034804F06DF90120F4
:1010F00003F0BCFFB4B30010C4B30010EFF31080D2
:1011000072B6034A1368002BFCD0BFF35F8F7047A1
:101110002C0100D0BFF35F8F0022024B1A6080F3D6
:10112000108870472C0100D070B5EFF3108C72B6A8
:101130000D4D2B68002BFCD0BFF35F8F0724CB082D
:10114000C618C05C01230C40A3401C0004400342AD
:1011500007D118433070BFF35F8F2C608CF3108879
:1011600070BD1000FFF7B2FF2C0100D0F8B5474664
:10117000CE46884680B5EFF3108C72B61C4D2C68B5
:10118000002CFCD0BFF35F8F9A4222D807210126A2
:10119000894602E00132934218D34D46370015408C
:1011A000AF40D4080119045D2742F3D110003C433D
:1011B0000C70BFF35F8F00220D4B1A608CF3108808
:1011C00000280EDBC0BCB946B046F8BD0120404245
:1011D000EFE7BFF35F8F00232B608CF310880120B3
:1011E00040424346002BEDD00898FFF76FFFC04602
:1011F0002C0100D0044A1078431CDBB2172B00D915
:10120000102313707047C046D43B002010B5064B26
:10121000064C82B00100009318221F232000FFF724
:10122000A5FF02B010BDC046C8B30010A0530020F7
:101230000021044B044ABFF35F8F02C39342FAD1EB
:101240007047C046000100D0800100D0054B064A1F
:101250001360064A136053609360D3601361536157
:10126000936170478080808000E400E004E400E047
:101270001F2318401E3B8340002905D0C021044A8B
:101280004900535013607047802201498B50FAE7A0
:1012900000E100E001228240034B1B6813405A1E0C
:1012A0009341D8B27047C04600E100E070B50D0030
:1012B000EFF3108672B60F4A1368002BFCD0BFF311
:1012C0005F8F0D4B10309B6884001B590B4A934273
:1012D00003D09D4201D001F053FC074B9B681D5188
:1012E000BFF35F8FBFF35F8F0022024B1A6086F35C
:1012F000108870BD240100D000ED00E0C101001095
:10130000F0B557464E46DE464546E0B585B0060088
:1013100000911700EFF3108B72B66A4A1368002B26
:10132000FCD0BFF35F8F0025674B5D579A46002DB9
:1013300000DAA9E06B00654C01935B199B009846AD
:10134000A146C1444B4652469B7910361370604B00
:10135000B6009B6899590B1B2F2B33D95D4B9942D3
:1013600000D0ACE0019B42469C465B4B6544AD001F
:1013700063535A4B0232A218043B9B1A1B05584A6E
:101380005B0D651913436B80564B0121AB80FF2326
:10139000AB71009BEF71AB604B460B4319004C4B9C
:1013A0009B689951BFF35F8FBFF35F8F0022454B5E
:1013B0001A608BF3108805B0F0BCBB46B246A94654
:1013C000A046F0BD01200A008243D3798C46BB427F
:1013D00031D84546130044491B1B5B415943090D55
:1013E0003D4B63533D4B02356519043B5B1B1B05AD
:1013F0003B4D5B0D2B43AA464D466B800425AC4606
:101400005546E044131F44441B1B1B055B0D1D4345
:101410004B46997100999D8099604946DF71334B25
:1014200001431360BBE75800C01880002018C17941
:10143000B9422FD902000623D356002BF3DA0293C8
:101440002B4B61460393131D9A4604235B429C4633
:10145000E14450464B461B1A1B055B0D9C46204B36
:10146000957198466346404603439380019B5A1901
:101470009200039BA418A380029B1C4AA371009BAB
:101480002260E771A3608AE701F07AFB00255346EA
:101490005D574FE7908802934005131D9A46031548
:1014A00061469C464046D444634604302018181ACE
:1014B000E0230005400D1B0218430390C5E701F02F
:1014C0005FFB4FE7240100D0BC740020D83B002014
:1014D00000ED00E0C101001000A1FFFF083C00206A
:1014E00000E0FFFF01BDFFFFAAAA000001488047FE
:1014F00001BD0000F0B5DE4657464E464546E0B514
:101500000C0083B0EFF3108872B6634A1368002BA7
:10151000FCD0BFF35F8F614B61499A6803001033C1
:101520009F00D55901938D4243D0A54254D05D4EC2
:10153000AA1B2F2A3DD85C4B9B461B68994601236A
:101540001A009C4682404B4613401F229946634630
:10155000024093409A4680225B4650469850BFF323
:101560005F8FEFF305839B46002B37D0019B5B45D4
:1015700001D001F005FB01232A009A4390688442C0
:1015800008D176E04B005B189B00F3189868844202
:1015900036D01A00062151560029F3DA844254D07D
:1015A0004B46002B27D0C02251463F4B520099504A
:1015B00019603A4B9B68DD51BFF35F8FBFF35F8FBC
:1015C0000022354B1A6088F3108803B0F0BCBB468C
:1015D000B246A946A046F0BD0D00EAE72A006346E0
:1015E0009A4390688442D5D10620105613000028F3
:1015F0000ADA0D0031E0802351462B4AD150D8E75A
:1016000006201856002821DB4200111889007418A2
:101610008B46A1689960E179D9710621615699716B
:10162000002924DBA488F11A640524155C440919F7
:1016300009051E4C490D2143998013181C4A9B0033
:101640001178F31899711070AAE713005946002910
:1016500014D1FF3191711749918015490A789A7117
:10166000154A9B1B5B415A43120D0A7098E71149BA
:10167000E2E70620105613000028C5DA0F4A104989
:10168000D21A083A5002400D014399800D49520880
:101690000A43DA8084E7C046240100D000ED00E070
:1016A000C1010010D83B002000E100E000E0FFFF96
:1016B000BC74002001BDFFFFAAAA0000123C00205C
:1016C00000F0FFFF00F8FFFF70B501240443EFF3C3
:1016D0000581EFF3108C72B6214A1368002BFCD001
:1016E000BFF35F8F1F4B05001F4AED1A6D416A4320
:1016F000120D1E4D8900AE6852B27658A6421CD01B
:101700000621595691421CD012215956914222D09D
:101710001E215956914220D02A2159560324914224
:1017200010D0134B19781A708171BFF35F8F0022AC
:101730000B4B1A608CF3108870BDAB680D4C5C507D
:10174000EFE700246100091989005B18FF219971F6
:1017500009499980E5E70124F4E70224F2E7C0464D
:10176000240100D0D83B0020AAAA000000ED00E030
:10177000BC740020C101001001BDFFFF024B9C465C
:1017800061448900016070474000003470B5114C1D
:10179000114DAC420FD2FF262368002B0CD0FFF76F
:1017A00029FD01002000FFF7E9FFA680BFF35F8F4E
:1017B0000834AC42F0D370BDFFF71CFD01002000DF
:1017C000FFF7DCFF2671BFF35F8F0834AC42E3D331
:1017D000F1E7C046184200202842002010B504005E
:1017E000FFF708FD01002000FFF7C8FFFF2323716A
:1017F000BFF35F8F10BDC04610B504000120FFF796
:1018000005FD034BC3189B002360BFF35F8F10BD22
:10181000400000340A4B1968EFF3108072B60A6872
:10182000002AFCD0BFF35F8F1B68BFF35F8F0022DD
:101830001A6080F3108840BF002000217047C04626
:1018400090740020F0B5DE4657464E464546E0B55A
:1018500087B0EFF30583032201251A4095409100DC
:101860008846A946B34B03925C58B34B1D60B34BFB
:1018700004934B46B24843630823E55E002D37DAF4
:10188000A3881BB2002B00DBADE0A379002B00D0B6
:10189000EEE00823E05E002820DB430062691B18AD
:1018A000DB00D3189E68DD68731C00D111E1A448E9
:1018B00001004144826A0B69B71A9B1A9F4215D3F3
:1018C0000123026A039883401A420FD09C4800F01B
:1018D00037FC8D4202DCCCD18642CAD940BF07B06A
:1018E000F0BCBB46B246A946A046F0BD0E61EDE78E
:1018F00062696B0092465B19DB009A4453469E680E
:10190000DF6800F01DFC8F42BADC00D103E1002F3C
:1019100000DAE8E05246534652691B699346049A3E
:10192000934200D1D9E052460821605E52880004FB
:10193000594610439847009001910099019A0B0075
:101940001000134300D1CEE013000A00B61A9F41E5
:10195000002806DB7A4800F0F3FB009E019F361852
:101960004F4153469E60DF6000229A5E002A00DAF3
:1019700086E7530099186069C900411802938B6883
:10198000C9689B46B94200DD7AE702D1B34200D96B
:1019900076E708239C46A444059565462281A44623
:1019A000029B2C0006E053009918C90041188D686D
:1019B000C968AB469B18DB00C318B94206DC00D1EE
:1019C000B3E01C000023E25E002AECDA2300644648
:1019D0009C4653461A806346059D1D80A3881BB212
:1019E000002B00DA51E72269EFF3108172B6136819
:1019F000002BFCD0BFF35F8F0123A7885B42A3803D
:101A00003FB22369BFF35F8F00221A6081F3108811
:101A1000002F00DA39E72300083322009A4666696E
:101A20007B00DB19DB00F318996850468C460824CC
:101A3000115FDD68002910DB029306E0AB4244D061
:101A40000023E15E2000002906DB4C006418E4005E
:101A50003419E368AB42F1DD029B078000201F5E72
:101A60001980002FDCDA1400A379002B00D110E7D5
:101A70000023A37126000823E15E08364B1C00D129
:101A80002CE70800A246656902E03E004B1C1AD014
:101A90004B005B18DB00EF180A008C46E95E7B8880
:101AA0001BB2002BF1DA01235B42DC17BB60FC6048
:101AB000824205D0534631801B893B8053461A81B0
:101AC00060464B1CE4D15446E5E6A3686345B7D9AC
:101AD000C2E76B1C00D0EAE6F8E65B4658461B6995
:101AE000984700281BD153461B8822692381EFF3B6
:101AF000108372B611680029FCD0BFF35F8F514686
:101B000062880A8022696580BFF35F8F00211160BF
:101B100083F31088B4E6864200D8F8E6B0E65B4668
:101B20001A685B680092019307E7B34500D848E75D
:101B30004CE7C046707200203C700540451800100C
:101B40000040054070B52E4C2569002D04D00A21B7
:101B50002C48FFF713FE70BD2B4E0321300000F020
:101B6000E5FAE660FFF746FB284B03229C46D023AC
:101B700022701B061B6801216370254B6044A36023
:101B80000F23800020610220638063694942A180A5
:101B900019800231198647311D83585218315A5223
:101BA00075325C399952183201319952183201312B
:101BB0009952183201319952083518329D5202312A
:101BC0001832995218320131995218320131995212
:101BD00018320131995218320131995218320131BB
:101BE00099520C4B0C49DC6001303562FFF75EFB0B
:101BF00001210320FFF73CFB084B1D60A7E7C0460F
:101C0000203C00209074002000400540400000343B
:101C1000FFFF10007072002045180010386005406A
:101C2000F0B5C646060000B518200F00904601F03A
:101C300035FD051E3FD01821404601F04DFD39000D
:101C40006861300000F072FAEE60FFF7D3FAD0223C
:101C50002F70120612681A4B6A709C460122434686
:101C600052429BB26B819B186B804346604480005C
:101C700028612A81AA80002B0BD05A006C6942444B
:101C8000D200104B12192380013318349BB29442B6
:101C9000F9D10124BC400C4BBA0038000B49346226
:101CA000D550FFF703FB01213800FFF7E1FA084B9D
:101CB0009C4666443460280080BCB846F0BDC046EF
:101CC00040000034FFFF0000707200204518001033
:101CD0003820000070B501000469EFF3108C72B673
:101CE00020680028FCD0BFF35F8F02200D5E4C6996
:101CF00068004019C00024180869002D36DB2688CA
:101D00004E80BFF35F8F002606608CF31088E3607F
:101D100063880498013320615B0405985B0CA26022
:101D200060611A1C002B1FD093B2280462801843F4
:101D30000A69EFF3108C72B61368002BFCD0BFF366
:101D40005F8F8B8823808D800B69BFF35F8F0022AC
:101D50001A608CF310880B7801329A40CB680849DE
:101D60008C4663441A6070BD0122DDE7BFF35F8FCC
:101D7000002303608CF3108801204042F3E7C04643
:101D80003C20000010B543890A1493421ADD530029
:101D90009B184269DB00D3180469EFF3108C72B60C
:101DA0002268002AFCD0BFF35F8F5A88090494B2DE
:101DB000090C8A4208D00369BFF35F8F00221A60C2
:101DC0008CF31088002010BD8022120214435C8026
:101DD000012302698371BFF35F8F002111608CF3CF
:101DE0001088044902788C469340C26801206244FE
:101DF0001360E8E73C200000F0B5C64600B582B0AD
:101E0000040000F0A5F9FA2206000F0020000023CC
:101E10000021920001F0A2FB8019794104000D1EFF
:101E200002DA01242E4D644206267642F71736194F
:101E30006F41AF4214D811D000F08AF932003B0054
:101E4000121A8B41002B15DC002B46D020002900F4
:101E500000F00AFA02B080BCB846F0BDA642EBD949
:101E60000026002700F074F932003B00121A8B4163
:101E7000002BE9DD00F06CF932003B00121A8B41B7
:101E8000002B0ADB00230193164B32000093164807
:101E90003B00FFF71FFF0130D8D000233900B046C8
:101EA0009C46124A1248536A994204D8966A46459B
:101EB000CCD29942CAD10668EFF3108772B6336864
:101EC000002BFCD0BFF35F8F0368BFF35F8F6646C4
:101ED0001E6087F3108820BFE5E7002AB6D0C9E767
:101EE000FFFFFF7F15180010203C00200040054038
:101EF00090740020F0B557464E46DE464546E0B5A4
:101F000006000F0085B0EFF3058399468B46002B42
:101F100012D0384900204B6ABB4206D38A6ADB1BC9
:101F2000591E8B41B2424041184305B0F0BCBB463C
:101F3000B246A946A046F0BD2F4B9A46DB689846AC
:101F400053461B784046039300F0FAF84246039B41
:101F5000040004339B009B580D001B1A390030000D
:101F6000001BA941894510DC0DD020BF214A00206B
:101F7000536A5B45D9D3926ADB1B591E8B41B2422F
:101F800040411843D1E78342EFD900F0E1F8320035
:101F90003B00121A8B41002B1ADB00230193174BD5
:101FA0003200009350463B00FFF794FE011E0FDD08
:101FB000104B5A6A5A451BD39B6AB34216D35046FC
:101FC000FFF7E0FE0B4A0020536A5B45ADD3D2E732
:101FD000084A0020536A5B45A7D30020926ADB1BA6
:101FE000B24240415A1E934118439EE75A45E6D1FA
:101FF00020BFE4E700400540203C002015180010F9
:10200000F0B5CE464746110080B583B004009C462B
:102010000C9D194300D16CE06146DB1701930093DE
:1020200053401E00019B4B401F0000980199361A37
:102030008F4163460A996B600B9BAC6029612A60F3
:102040006B6100F085F880197941002902DA0120DE
:10205000314940422269EFF3108972B61368002BB0
:10206000FCD0BFF35F8F0223E65E636972009219B2
:10207000D2009B1822699046002E42DB1A886280AB
:10208000BFF35F8F002247463A6089F31088234AE6
:102090009860D9601A615A885D6101325204520C0D
:1020A000111C002A2BD088B23204024359802069C7
:1020B000EFF3108772B601680029FCD0BFF35F8F81
:1020C000A1881980A6802369BFF35F8F0021196062
:1020D00087F3108812482378844601319940012003
:1020E000E36863441960EA6003B0C0BCB946B04617
:1020F000F0BD00230126002701229C4699E701211B
:10210000D1E7BFF35F8F0023136089F310880122AA
:1021100000205242E7E7C046FFFFFF7F451800104E
:102120003C200000004870470040054010B5024ABE
:102130000248FEF7F9FF10BDE4B30010A4530020DD
:102140000300416A0A00986A596A8A42FAD17047C4
:10215000034B596A0A00986A596A9142FAD170474A
:102160000040054070B504000D00174A536A19007D
:10217000966A536A8B42FAD13000190024184D41F7
:10218000AB4216D813D0104B2A005B6A9D4203D98C
:102190000D494B6A9342FCD3934207D10A4A02E0AD
:1021A000516A994202D1916AA142F9D370BDA64207
:1021B000E9D9054B5B6A1C005A1CEFD001220124AF
:1021C0006442E5175242E3E700400540244B70B5F6
:1021D00098420BD843011B1A224A9B001818916A97
:1021E000C000936A5B1A9842FBD870BDFA220023A4
:1021F0009200002101F0B2F904000D00194A536A5F
:102200001900966A536A8B42FAD1300019002418DB
:102210004D41AB4218D9134B5B6A1C005A1C0AD0C3
:10222000012301246442E5175B420E494A6A9A423F
:10223000FCD39A42D9D10B4A02E0516A9942D4D1D7
:10224000916AA142F9D3D0E7AB4205D0054A2B00F1
:10225000526A9542E9D8ECE7A642F7D9DBE7C046D7
:102260009BC4200000400540064A536A9942FCD8AE
:1022700007D1044B02E05A6A914202D19A6A904215
:10228000F9D8704700400540F8B5040006200D005D
:1022900000F078F9002844D0374B3849E3185A1E2B
:1022A00093418022120494465B429B0D344A9B0565
:1022B00063441360334A136018000A689043FBD1EB
:1022C0002D4B314AE31859424B4180215B004900B4
:1022D0000620995200F056F92900C00000F0BCFD1C
:1022E0000130C3091ED1402701226262A362266B1E
:1022F000F30722D4E36A254B0620E51800232B6060
:10230000266300F03FF93900800000F0A5FD70233E
:10231000E26A5A400E3313402B601D4B23630323A4
:10232000A364F8BD1B4A93421ED900231A4A1B4FCF
:102330006262A362266BF307DCD5194B144AE318DB
:102340001A60656AA36A0620AD01ED1800F01AF95B
:10235000144900F081FDAD020100280000F07CFD71
:102360000021FFF7FFFEC5E74006800E9F011A001F
:102370003F180300B9E7C0460080FCBF08C000401A
:1023800000E0004000F00040AC7400202C10000081
:1023900001030000FEFF0000FFFF0000C0FF3F0040
:1023A000303000004E0E0000F8B5DE464E4657466F
:1023B0004546E0B58B4605000A991800160000F066
:1023C0004BFD0A9B6C001F02324B64199C46A40013
:1023D0006444636881469F4200D967602B1FDBB26B
:1023E0009846012B30D9C02380229B01E3181201AB
:1023F0001A60294BAD0059599A4600291BD1730127
:10240000E026226853401E40802342465B01E318C9
:102410001E60012A30D9802380229B01E31812011B
:102420001A6053464A4667605A51F0BCBB46B246F2
:10243000A946A046F8BD586900F00EFD01304300E2
:102440001B18033BFDD2DAE75B46012BCBD1C0233F
:1024500003229B01E3181A60023AA3681A42FCD0D7
:102460007301E0262268AD0053401E4080230A4AD3
:102470005B019246E3181E605A46216851400322D0
:102480000A401A6001225B469A40A3681A42FCD0B7
:10249000C1E7C04600800040AC530020F0B546467E
:1024A0004F46D646C0B51F00344B44009C46241806
:1024B000A4006444636888461600FF2B02D880237A
:1024C0005B006360031FDBB29A46012B30D9C02347
:1024D00080229B01E31812011A60294B850059598B
:1024E000994600291BD17301E026226853401E4003
:1024F000802352465B01E3181E60012A30D98023F5
:1025000080229B01E31812011A6080235B00636044
:102510004B465F51E0BCBA46B146A846F0BD58698B
:1025200000F09AFC013043001B18033BFDD2DAE7B0
:102530004346012BCBD1C02303229B01E3181A6031
:10254000023AA3681A42FCD07301E0262268850093
:1025500053401E4080230A4A5B019146E3181E60E7
:1025600042462168514003220A401A600123424634
:102570009340A2681342FCD0C1E7C04600800040EF
:10258000AC530020014B8000C0587047AC53002072
:10259000F0B54746CE4680B55B4B16005A6807003B
:1025A000884683B0FF2A02D8802252005A60032254
:1025B000564B554D1A600123AC682342FCD02022B3
:1025C00029685140C0320A4051490A602A684E4D7C
:1025D0005A40032313400B600223AC682342FCD013
:1025E00080224C4B12011A6080235B006B604A4CC6
:1025F00099464A4B3A006361012143464848009698
:1026000000F0D8F941463800714300F025FC454BF5
:1026100005005A68FF2A01D84A465A608022424B78
:1026200012011A602169002907D0606900F014FCCA
:10263000013043001B18033BFDD2E023394A3B48DD
:1026400011680B40036002231168594001330B40AD
:102650000421036093681942FCD08021344B0901A6
:1026600019608021334B490051602361264B5A6821
:10267000FF2A00D8596003220121244B1A60224A04
:1026800093681942FCD0E02310680340204803609F
:10269000126803234A40022113401B4A03609368D7
:1026A0001942FCD080211B4B090119608021224B6B
:1026B0004900516065615A68FF2A00D8596080223C
:1026C0001E4B12011A60A169002907D0606900F051
:1026D000C3FB013043001B18033BFDD240231649C6
:1026E0000A685A40A0331340154A13608022154BE4
:1026F00012011A6080235B004B60084BA36103B09A
:10270000C0BCB946B046F0BD3C8000403CB0004083
:102710003C9000403CA00040AC530020006CDC0228
:10272000008002403080004030B0004030900040D7
:1027300030A00040001BB7004880004048B0004077
:102740004890004048A00040F0B54E46DE4657464F
:102750004546E0B51600924A85B09346A022520045
:1027600091465A4603969B46060001920291019BB0
:102770008C4A93420DD901235B429C468A4AE1442C
:102780009446019B634401934B460F2BEFD10020ED
:102790008EE01F00854B07249C466744230063435B
:1027A00038001900984600F057FBA246651E864285
:1027B00050D06C433800210000F04EFB864259D0C7
:1027C0006B1E9846012D00D1D3E05346E41A210038
:1027D000380000F041FB864258D0AB1E9846022DCF
:1027E00000D1B9E05346E41A2100380000F034FB70
:1027F000864264D0EB1E9846032D66D05346E41AF9
:102800002100380000F028FB864200D172E02B1F27
:102810009846042D00D174E05346E41A2100380094
:1028200000F01AFB864200D17DE0052D00D17FE04B
:1028300053463800E11A00F00FFB06248642ADD162
:102840000029ABD1C8465B46D14601250298039EBC
:1028500026E0A8464146380000F0FEFA002900D1E3
:1028600097E0651EA2466C433800210000F0F4FAA0
:102870008642A5D12100380000F0EEFA00299FD150
:10288000C8465B46D1460298039E09E00029A4D1C0
:102890005246C2465B46C846554691460298039E3C
:1028A0004246434951434A460160012032601D605F
:1028B00005B0F0BCBB46B246A946A046F0BD002913
:1028C000E6D0EB1E9846032D98D109213800032449
:1028D000092500F0C1FA8642BBD003230621380047
:1028E0009A460334073D00F0B7FA8642C2D001236E
:1028F00098466AE70029CBD02B1F9846042D00D0BC
:102900008AE704240C353B099E42A2D004230C2103
:1029100038009A4608340D3D00F09EFA8642A9D050
:102920000223984651E70029B2D0052D00D07FE759
:1029300019213800192500F08FFA864226D014217B
:10294000380000F089FA052314249A4686421BD0E9
:10295000023B9846153D38E7042302249846BB08FD
:102960009E4200D176E7A246013D7B089E4200D1FF
:1029700080E7B74200D0FEE60122C8465B4691469A
:1029800001250298039E8BE7042573E7A8460524DA
:1029900060E7C8465B46A14625000298039E7FE794
:1029A00050262F0050F80C0020D1FFFFB0710B0013
:1029B000001BB700F8B5040021481E0017000D00E9
:1029C00000F04AFA0100380000F046FA069B36048F
:1029D0001B031E432368002B20DB1A4B1A49E31804
:1029E0005A1E93418022920194465B421B0B174A68
:1029F0001B0363441360164A13601F000A68974361
:102A0000FBD1144B2560E2182123A06013602368DA
:102A1000002BFCDA0823E6601360F8BD3F23226830
:102A20001340AB42D9D1A3681B051B0D8342D4D1FF
:102A3000EE22E368D2021340B342CED1EDE7C046A6
:102A4000001BB7000040FDBF08C0004000E0004090
:102A500000F0004004300000194B1A4A10B5DA614A
:102A60008022194BD2051A60184C194A14600029AB
:102A70000AD0E022174BD2041A60002809D1802224
:102A8000144B12061A6010BDE022D2041A6000280E
:102A9000F5D043011B1A9B001818802300015B042A
:102AA000984209D203000C4A13608022044BD205DD
:102AB0005860084B1A60E6E7084B1800F3E7C04679
:102AC000008005402131B76A00B00540FCFF0100DD
:102AD0000820014000A0054010580020FFFFFF0023
:102AE0008023024A9B000B43D3627047008005405D
:102AF000002310B50100988A1B8B984710BDC04673
:102B0000162310B50100188802331B88984710BDA2
:102B1000F8B54746CE4680B50F1E18D01423994607
:102B2000043304000025012698464B461888434686
:102B300021681B88984701C4431E9841013506400F
:102B4000AF42F2D13000C0BCB946B046F8BD012654
:102B5000F8E7C046AA23064A1B0113608D235B00D9
:102B6000D3600449044B19605368002BFCDA7047AA
:102B70000040024000B0FA00006002407047C046CA
:102B800010B50148FEF7A2FA08B4001070B5074D61
:102B9000074EB54209D20024013E761BB60808CD87
:102BA000984723000134B342F9D170BD50B20010F0
:102BB0008CB2001070B5074D074EB54209D2002403
:102BC000013E761BB60808CD984723000134B34276
:102BD000F9D170BD84B200108CB20010054B064ACA
:102BE00006491A60064A074B1A6010000B689843A2
:102BF000FBD1704700E00040BFCDFBFE08C00040A5
:102C0000FE7F3C0000F00040044BDB6C002B03D146
:102C10008022034BD2021A607047C0460000115058
:102C20004C201150044A054B1A60054A1368DB0119
:102C30008033FBD17047C046FFFFFF0100F000402A
:102C400008C000404022034B9A675A671A67DA6649
:102C50007047C04600F0014010B5FEF7E9FA10BD1C
:102C6000F8B52749274C284D641AA6103200302E9B
:102C700000D930222800920000F05EFDBC2C3BD829
:102C800030202F232C196407204A801BE40F9B1B44
:102C9000052B16D93700002C02D0B300771CEA5060
:102CA000001B33199B004108EB18C900C9181A60B2
:102CB0005A6008339942FAD1012303421CD0984349
:102CC000C619B300EA50731C2F2E15D09B00EA5092
:102CD000B31C2E2E10D09B00EA50F31C2D2E0BD0CF
:102CE0009B00EA50331D2C2E06D09B00EA50731D2A
:102CF0002B2E01D09B00EA50054B9D60F8BDC046CD
:102D000000010010C001001000000020C1010010EF
:102D100000ED00E0002310B5294C82B0A367FFF757
:102D200019FF0122274B1A60636C012BFCD103228F
:102D3000254B1A60224A936B012BFCD1013300937F
:102D40000121224A22480433FFF734FE05230121E2
:102D50000093204A2048FFF72DFE00220221042084
:102D60001E4BFFF79BFB0022012105201C4BFFF7A8
:102D700095FB0022002107201A4BFFF78FFB002252
:102D800000210820174BFFF789FB8023DB0000930D
:102D9000002200210920134BFFF706FB0022104BF5
:102DA00000210620FFF77AFB0420FFF7EBFB0E491A
:102DB00000F052F801000020FFF792FE02B010BDB3
:102DC000008000403CB0004030B00040002F685907
:102DD00000800240008C864700C00240001BB70004
:102DE00040597307006CDC0240420F000148042187
:102DF000014B1847403C0020112B0010014B9B68F1
:102E000018470000403C0020124A936F9B0815D2DF
:102E10009066D166002905D0FFE7FFE7FFE7516F15
:102E2000106F704704B580210906C2175140002871
:102E300000D0C84308F0BCF9002104BDF0B5146E01
:102E4000556E576F166FFFF7E3FF146655665767A9
:102E50001667F0BD000000D0114A936F9B0813D293
:102E600010665166002905D0FFE7FFE7FFE7516FC5
:102E7000106F704704B5002801D00020C04308F04F
:102E800097F9002104BDC046F0B5146E556E576F1A
:102E9000166FFFF7E5FF1466556657671667F0BDB6
:102EA000000000D094464A4A926F9208624601D2CE
:102EB00028E0C046F0B5464E346E756E776F366FBB
:102EC00000F020F89446424A146655665767166724
:102ED0006246F0BD94463E4A926F9208624601D225
:102EE00054E0C046F0B53A4E346E756E776F366F6B
:102EF00000F04CF89446364A1466556657671667D4
:102F00006246F0BD002B24DB11D000293EDA00B56B
:102F1000C943404200D1013100F038F8C943404272
:102F200000D10131DB43524200D1013300BD002A00
:102F3000EBD1002801D1002905D00020C90FC90715
:102F400001D1C043410800B508F002F90022002376
:102F500000BD00B500290ADBDB43524200D101333A
:102F600000F014F8C943404200D1013100BDC9430B
:102F7000404200D10131DB43524200D1013300F025
:102F800005F8DB43524200D1013300BD002923D1B3
:102F9000002B18D1002A0CD0BC460D4F38667A663B
:102FA00000210023FFE7FFE7FFE77A6F386F6746EE
:102FB0007047002801D00748010000B508F0C8F8A4
:102FC0000022002300BD02000B00002000217047FA
:102FD000000000D0FFFFFFFF002B00D0BFE0130C6C
:102FE00028D1002AE7D080B4114F39667A66FFE70E
:102FF000FFE730B4040C7B6F396F1B0423433B663F
:103000007A66FFE7FFE7FFE7C04684B27B6F3D6F5C
:103010001B0423433B667A66FFE7FFE7C0460023B5
:103020002C042D0C7A6F386F00196941B0BC7047C1
:10303000000000D0F0B594460025140E01D1120214
:103040000835140F01D112010435940F01D19200FB
:103050000235D40F01D152000135D40B0134254F74
:103060007C66254C3C660E0C93B2FFE7FFE7FFE75A
:103070003C6F6643360C7703BE467343DF0B5B043D
:10308000C01AB941130C7343DB18C91ACE08664342
:10309000360CB64493B273431F0F1B01C01AB941DB
:1030A000130C73431F0B1B05C01AB941860D8F0209
:1030B0003E436643360C092D24DB520A7243801AC4
:1030C0007703460A6643360C16235B1BDE40DF405F
:1030D000BF1964466643821B7046043506330100FF
:1030E000D940A840C01900D30131A24206D2002322
:1030F000F0BD0000000000D0FFFFFFFF121B0130F9
:10310000F3D3F1E709277F1BFE406446A2B2724366
:10311000801A00D20139220C7243130C1204821A55
:1031200099410B007046043513370100F940A8405F
:10313000801900D30131002B02D1A2420AD2F0BD86
:10314000013000D30131121BFAD2013BF8D1A24267
:1031500000D2F0BD013000D30131121BF7E7F0B50A
:103160001C0C00D080E00CB400251C0A04D11B020A
:10317000160E3343120208351C0B04D11B01160F27
:103180003343120104359C0B04D19B00960F33434B
:1031900092000235DC0B02D192185B4101351C0014
:1031A000971864410134464F7C66464C3C660E0CD1
:1031B000FFE7FFE7FFE7C0463C6F6643360C770347
:1031C000BE4697B27743C01B00D20139C01B00D264
:1031D00001399FB27743C91BC91B170C77437E0483
:1031E000FF0B801BB941CE086643360C0C2D33DB38
:1031F000B644120B1F053A431B0B97B27743C01B13
:1032000000D201399FB27743C91B170C77433E04A4
:103210003F0C801BB941860D8F023E436643292730
:103220007F1BFE400C3D7746AF40BF1930BCA2B2B9
:10323000ABB272437343801A9941220C7243130C50
:103240001204801A994102000B000137001BA941AA
:10325000F9D2781E0021F0BD0C277F1BFE40774677
:103260007F0BAF40FF19E0E700245D1C07D0144F2F
:103270007D663966FFE7FFE7FFE7FFE73C6F95B242
:103280009EB265436643401BB141150C1E0C65435D
:10329000664336042F0C3E432D04401BB141994236
:1032A00004D202000B0020000021F0BD01D19042A9
:1032B000F7D3801A994101349942F2D3F6E700001E
:1032C000000000D0FFFFFFFF48404140484018B4D5
:1032D000134B5B68019308BD18B4114B1B68019335
:1032E00008BD94460F4A926F920805D2624618B400
:1032F0000B4BDB68019308BD0A4AF0B5146E556E9E
:10330000576F166F6246FFF7F2FF064A146655665E
:1033100057671667F0BD18B4014B9B68019308BD51
:1033200020440020000000D0FFB5504042405040F3
:1033300059404B40594000E0FFB5154F4C00640D1B
:1033400003D0BC4204D10C0314D80020090D090598
:103350005C00640D03D0BC4204D11C030AD80022D7
:103360001B0D1B0501264B4009D44B4003D58B4256
:1033700000D18242FFBD9942FCD19042FFBD0B4378
:10338000DB1803431343F5D0C9434918FFBD0000C0
:10339000FF07000000B5FFF7CFFF804100BDC0462A
:1033A00000B5FFF7C9FF01D9002000BD012000BD15
:1033B00000B5FFF7B9FF01D9002000BD012000BD15
:1033C00000B5FFF7B1FF804100BD012040054A0074
:1033D000121804D85A00121801D800207047012092
:1033E000704700000021002805D17047C1174840F0
:1033F000401AFAD0C90713B5064B1B6898470CBC96
:10340000441CA2401005120B0349091B090519436E
:10341000114310BD8C7300201F04000010B54C0038
:10342000620D8023D218DB00D21A5B057E2A10DDE4
:103430009E3A13DACC170903490819435242D14086
:10344000640001341532202A05DAD0400843604375
:1034500010BD002010BD0846604310BDC80FC01845
:10346000013810BD18B4024B5B6A019308BD00001F
:103470002044002018B4024BDB6C019308BD00000F
:103480002044002010B50148FDF720FE14B40010C0
:10349000132370B51D78012D19D014DD1D48FFF7D9
:1034A0002FFB06001C48FFF72BFB1C4C8022310031
:1034B000200000F041F9022D06D01948FFF718FB53
:1034C000184B186070BD154C174BA364F5E7174BEC
:1034D000124C23606360A360E36023616361A361B6
:1034E000E36123626362A362E36223636363A363B2
:1034F000E36323646364A364E36423656365A36592
:10350000E36523666366A366E36623676367A36771
:10351000E367D9E7534400005346000020440020ED
:103520004C3300008C7300203135001085340010BE
:1035300007B5604601880A0A0230DF2AFAD1C9B20B
:10354000820804D3028840880004104300E0006829
:10355000014A5050039007BD20440020514343438B
:10356000C9188C46110C83B24B4310B4040C614350
:1035700092B280B2504362431C041B0C001910BC71
:1035800059411304120CC0185141614470470000A6
:103590004840414048400E4B5B6818470C4B1B6845
:1035A00018470C4A936F9B0802D2094BDB681847F7
:1035B000F0B5146E556E576F166FFFF7F6FF054A9C
:1035C0001466556657671667F0BD014B9B68184730
:1035D00090730020000000D0491A002808D1084646
:1035E00070470000C10FC90700D54042002817D01E
:1035F000F44603B40B4B1B68984706BC81409E38C9
:103600004042803107D20B0607D04900490AC00565
:103610001043084360470130F8E7490A8902F5E79B
:10362000704700008C730020014B5B6A1847000054
:103630009073002010B50148FDF748FDF8B4001064
:10364000132310B510481C78FFF75AFA0100012C1B
:103650000AD003DD80220D4800F06EF80C48FFF719
:1036600047FA0C4B186010BD084C5422200000F0A3
:1036700063F82200084980322368002B00D12160C2
:1036800004349442F8D1E9E75346000090730020D7
:103690004C3300008C7300203536001070B50400E8
:1036A0000A4E300007F0CCFD200007F09DF8050021
:1036B000300007F045FD002D05D0054B2C199C422C
:1036C00001D8280070BD0348FDF700FD1842002016
:1036D000000004202CB40010F8B506000C000C4FBC
:1036E000380007F0ADFD2100300007F01DF805009F
:1036F000380007F025FD7443002D05D0054B2C192B
:103700009C4201D82800F8BD0348FDF7DFFCC04605
:1037100018420020000004202CB4001001480421AD
:10372000014B1847503C0020112B0010014B1B6827
:1037300018470000503C0020014B5B681847000010
:10374000503C00209A4200D2885470477047C046CF
:10375000F8B55746DE464E464546E0B599460A9BC3
:1037600007009A460D9B884693460B9C9B073BD1CE
:103770000C9B9C423DD21E1B0B9415000C005E441A
:103780002A004B46013521002020B847B542F7D129
:10379000A0460B9C002C20D0454636195346321BC0
:1037A000013C185D29004B46B847002CF6D12B0090
:1037B000350098460D9B9B070FD55B46EC1A0C9B7A
:1037C000A3420AD9464698462A004B46310020209B
:1037D0000134B84701354445F6D32800F0BCBB4658
:1037E000B246A946A046F8BD16001500002CD3D15C
:1037F000E0E716001500002CCED1EEE7F0B5454607
:10380000DE4657464E46E0B585B09C4610AB1B7869
:10381000149F934698460F9C129E139DBB074CD451
:10382000002D42D1B44248D201233B4099460E9B21
:10383000013B9A46302304E0524601341355A64218
:1038400001D9202CF8D14B46002B00D183E00E9BF0
:10385000013B99463023A54205D82EE04A46013463
:103860001355AC4229D0202CF8D1FB060CD57B0592
:1038700054D4A64263D0A54261D0119B102B50D0E6
:10388000022B57D0202C32D1202301930E9B5A4675
:103890000093039763460295FFF75AFF05B0F0BC0B
:1038A000BB46B246A946A046F0BD01233B4099461F
:1038B00001233B422AD1B442B9D3FB061CD57B0578
:1038C000DBD4002CD5D1119B102B5BD0119B022B8C
:1038D0006BD0302301240E9A13704346002B10D175
:1038E0007B073ED52B260E9A631C1655CDE7230089
:1038F000013430260E9AD654202CC5D04346002BD6
:10390000EED02D260E9A631C1655BEE74346002BBB
:103910002FD0013DB44200D289E798E7119B102BCC
:10392000B2D1BB0637D5202CAED058230E9A1355F2
:103930000134A7E7202CA7D02300013407E0631E41
:10394000012CC0D0119A102A31D0022AD1D162267E
:103950000E9AD65496E7FB06CED57B0500D488E7B1
:103960008BE723003E0790D520260E9A013316558B
:103970008BE70C233B405A1E9341ED1AB44200D210
:1039800055E764E7BB060ED478230E9A0224137021
:1039900030235370A1E7202C00D175E778230E9ACD
:1039A000135501346EE75823EFE76033EDE70E9AC5
:1039B000A61E91464E44BA0602D55822327098E7A8
:1039C0007822327095E7C04610B5002800D110BDAE
:1039D00001F0B0FCFBE7C0460B0010B5002802D098
:1039E00049681B68984710BDF0B55746DE464E46FD
:1039F0004546E0B595B083460F00924698461E9A1C
:103A00001F9B10001900209EFFF7DFFC002800D04C
:103A1000EAE11E981F990122C54B5242FFF7BAFCFA
:103A2000002800D014E11E981F990122C14B524278
:103A3000FFF7C6FC002800D0E9E01E981F9900227D
:103A4000BD4BFFF7BDFC002800D0C8E01E981F99B1
:103A50000022BA4BFFF79EFC002800D0BFE01E9862
:103A60001F9900220023FFF795FC002800D0E4E016
:103A700000230B93229B5B0500D4062600243023F1
:103A800007E0172106AA013452181355013E202CD5
:103A900001D0092EF5D81E981F99FFF7BFFCA84B3F
:103AA000F2009B181A685B68050008920993FFF7FB
:103AB0009DFC02000B001E981F99FFF708FC089A56
:103AC000099BFFF728FC06900791FFF7CBFC814686
:103AD000FFF788FC02000B0006980799FFF7F7FB39
:103AE0000022984B06900791FFF76AFC002800D14E
:103AF0000DE101239C46E1444846FFF773FC0200B8
:103B00000B0008980999FFF74BFC002802D000230E
:103B100099460135002E00D1D9E006954D46B946AB
:103B200014E006AA944617230A21634428000134AE
:103B30001F19FFF791F93031397028000A21013E31
:103B4000FFF78AF9092D00D817E10500202CE8D1EC
:103B50004F46069D20240CAE06AA172394466344C4
:103B600099465B46B34606930FE04B4628000A2170
:103B70000134E618FFF748F93031280031700A2186
:103B8000FFF742F9051E00D1E4E0202CEDD1069BA1
:103B90005E469B460323229A1340012B18D1219B9A
:103BA000002B15D00B9B002B00D1FDE0219B013B8E
:103BB0002193202B0CD93023219A07E0172006A946
:103BC000013409180B55944200D3CCE0202CF5D1D8
:103BD000229B01940393219B0096029322E0229B57
:103BE00052460493219B3900039358461E9B1F9C09
:103BF000029600930194434600F04AF90400200025
:103C000015B0F0BCBB46B246A946A046F0BD229B0B
:103C10005B070FD403224C4B229901920391219907
:103C2000009302914346524639005846FFF790FDF3
:103C30000400E4E70422454BEEE71E9A1F9B002098
:103C40000021FFF744FB01231E901F910B9311E706
:103C5000229B54469B0711D1219B042B0ED9219BFB
:103C600055469C465E46043C64442A004346013562
:103C700039002020B047A542F7D1B346344D260085
:103C80002B1F99465B46A3461C003200E87843464A
:103C90003900013DA04701364D45F6D123005C4671
:103CA0009B46229B04349B07A9D55346219AE31ACD
:103CB0009A42A4D95E4615002200434639002020CE
:103CC000B04753460134E31A9D42F5D897E72800E0
:103CD000FFF78CFB02000B001E981F99FFF7F7FA05
:103CE0000022184B06900791FFF754FB0CAE0028FA
:103CF00000D031E7069807990022124BFFF760FBCE
:103D0000002800D028E7012301359D4324E7002245
:103D1000069807990B4BFFF73DFB002800D0F9E60A
:103D20004B46002B5CD101239C46E144F2E6C046A1
:103D3000FFFFEFFFFFFFEF7F65CDCD4165CDCDC12B
:103D400020B900100000E03F90B4001088B40010CB
:103D500098B40010069B5E469B460323229A1340AC
:103D6000012B00D181E0202C00D131E70B9B002BEF
:103D700027D02D23335501342AE74F46069D202CAA
:103D800000D1E7E63022331907E0172006A90134F5
:103D900009180A55202C00D1DCE6A342F5D12E22C9
:103DA0000CAE0134F254D7E60C23229A134257D0BA
:103DB000219B013B2193A34200D9FCE6202C00D19A
:103DC00006E7229B5B0703D52B2333550134FFE61F
:103DD000229B1B0700D4FBE6202333550134F7E672
:103DE000DB0700D496E69EE7229B55469B0711D140
:103DF000219B032B0ED9219B54469C465E46033DD6
:103E0000654422004346013439002020B047AC42CB
:103E1000F7D1B346B9465F461C4EEC1C2A00B07879
:103E2000434649460135B847013EAC42F6D1229B94
:103E3000BB464F469B0700D4E1E65346219AE31A5E
:103E40009A4200D8DBE65E46150022004346390060
:103E50002020B04753460134E31AAB42F5D3CEE6F7
:103E6000219BA34200D9A6E6B2E6219B002B00D1FC
:103E700079E70B9B002B97D0219B013B21939C4220
:103E800000D298E6202C00D073E7A1E694B400108D
:103E9000F0B5DE4657464E464546E0B599B08146F8
:103EA0008B4692469846229A239B10001900FFF7F2
:103EB0008CFA002800D0CAE0229823990122824B74
:103EC0005242FFF77DFA002800D0C0E022982399E3
:103ED00001227E4B5242FFF75DFA002800D0B6E087
:103EE0002298239900220023FFF754FA002800D0DB
:103EF000C9E1229B239C089309940898099980237F
:103F0000269ADB001A400D928022269C1201144052
:103F100022000B94269C07000E001C4200D0ADE04E
:103F20000B00034300D0D5E0002A00D00AE22200B3
:103F300006332493022313400C930223134200D030
:103F400002E2259B042B00D20FE2043B0B930023DB
:103F500004250A930022229823990023FFF71AFAD6
:103F6000002800D003E25A4B269A134004930B9B7F
:103F70000393249B0293089B099C00930194594648
:103F8000434652464846FFF72FFD02002020269B5D
:103F90001F27034059424B415B421840531C089372
:103FA000594643464530C8470A9AD317D4185C404F
:103FB000D30F0A936B1E0B9308AB9C4600256744F6
:103FC00001E0202D0FD020000A21FEF745FF01352A
:103FD0007E193031317020000A21FEF73DFF2600A6
:103FE0000400092EEDD8052306930B9B5946059333
:103FF000002304930A3303930A9B4846029310ABB1
:104000000093089A43460195FFF7F8FB0C9B002BA1
:104010002DD05346C41A259BA34228D94D465F464E
:1040200081461E00534639001A19202043460134A8
:10403000A847A642F6D8534648462599C21A0132E7
:104040000023914200D386E1013018180FE0269B2F
:104050000493259B0393249B0293229B239C009310
:1040600001944346524659464846FFF7BDFC19B0F5
:10407000F0BCBB46B246A946A046F0BD01432BD1D9
:104080000B9B2200002B00D154E700230A93249BB2
:104090000A9A0024934200DD85E1229823990022A8
:1040A0000023FFF777F9002800D035E1269B084A66
:1040B00002941A408023DB0013430493259B03934F
:1040C000089B099CCBE7C046FFFFEF7FFFFFEFFF98
:1040D000FFF7FFFF06232493B44B70009C46400D6E
:1040E0006044FFF783F9B24AB24BFFF714F9B24AC2
:1040F000B24BFFF7F1F83603B14B360B33430400F4
:104100000D00380019000022AE4BFFF7E0F8AE4A70
:10411000AE4BFFF700F902000B0020002900FFF76B
:10412000DBF8FFF77BF90A90FFF760F9A84AA94B83
:1041300004000D00FFF7EFF80022A74BFFF7CCF8C3
:10414000FFF76CF9A54A0600A54B20002900FFF7F0
:10415000E2F8040030000D000C96FFF747F9A14A81
:10416000A14BFFF7D8F802000B0020002900FFF751
:10417000AEF802000B0006000F00FFF7CCF832008B
:1041800004000D003B0030003900FFF7A5F80022C5
:104190000E900F91954B20002900FFF7A2F8002206
:1041A000934BFFF799F802000B0020002900FFF75E
:1041B00098F800228F4BFFF78FF802000B002000C9
:1041C0002900FFF78EF80D008021040032003B002B
:1041D0000020C905FFF77BF802000B002000290032
:1041E000FFF77AF802000B000E980F99FFF779F8A5
:1041F0000022734BFFF770F87F4B0C9C9C46644485
:1042000000222305FFF787F806000F0002000B00CD
:1042100008980999FFF7BEF800280AD00A9B3000D9
:10422000013B39000A930022714BFFF75AF8060050
:104230000F000A9A330063323900C62A12D80222CC
:104240002698042510400B9A0C90002A25D1259B16
:10425000042B05D9002800D0A1E0259B043B0B933B
:10426000042541E00222269810400B9A0C90002A67
:1042700012D1259B052B76D9002872D1259B0525C7
:10428000053B0B9334E0802212069446229B089350
:10429000239B6344099330E605250B4300D1F6E6E2
:1042A00008980999554A564BFFF782F8002808D01C
:1042B000089809990022534BFFF76CF8002800D0AA
:1042C000E5E6249B002B1CD00D9B002B19D0249BD2
:1042D000013B2493259BAB4204D90C9B002B5AD065
:1042E00002230C9300230B930A9B002B00D131E691
:1042F0000898099932003B00FEF7F3FF08900991F6
:1043000028E6259BAB42EDD90C9B002B43D0002324
:104310000B9302330C93E7E78020269B3A4A000672
:104320001A40802384460294089C099D2900DB00E2
:1043300013430493259B6144220003930B000092D6
:1043400001938EE60524A8E600230B930A9302331B
:1043500004250C93FEE553468C46013B63441B1A2F
:1043600072E602230C930525C2E70423EDE58020C5
:10437000089E099F000639008446269A224B614414
:10438000134004930B9B32000393249B02930B0076
:1043900000920193F3E5259B5B1B0B93A4E702239B
:1043A00004250C93A0E79C1A013C76E601FCFFFF74
:1043B000FB799F501344D33FB3C8608B288AC63F14
:1043C0000000F03F0000F83F61436F63A787D23FD2
:1043D00071A379094F930A400000E03F1655B5BB21
:1043E000B16B0240EF39FAFE422EE63F00002C404E
:1043F0000000244000001840FF0300002D431CEB88
:10440000E2361A3F80842E41FFF7FFFFF0B5DE460B
:1044100057464E464546E0B5A5B01E002E9B924637
:104420000C93CD4ACD4B80468B461A60002900D1B3
:10443000EAE1002330789946002800D1ECE1C84B2E
:104440004C460B93C74B454657460E930AE0631CF8
:10445000984622003B005946A84744463078002839
:1044600000D187E001362528F1D108239A46043B84
:104470009946023B9846013B00229C460D943078B9
:10448000711C0300203BDBB2102B03D80B9C9B005C
:10449000E3589F460300303B89460D9C092B3AD9CF
:1044A000002398462A2800D1C1E000239A462E28EE
:1044B0004BD00300683BDBB2122B1ED80E999B0039
:1044C000CB589F4663460E001A43D8E743460E007A
:1044D0001A43D4E74B460E001A43D0E710230E00D0
:1044E0001A43CCE753460E001A43C8E780235B000B
:1044F0001A43FF3B9C467078E1444E4667284FD8EC
:104500002428A4D90300253BDBB2422B9FD896492F
:104510009B00CB589F46002394461E0000E00131CB
:10452000B3009B195B001E180878303E0300303B37
:10453000092BF4D90123624689469C460023B046E4
:104540009A460E00E1442E28B3D130218020494202
:104550008C46C000024370784B468444614609296A
:1045600000D86CE12A2800D17AE101239C464E460E
:10457000E1449EE7A146A846BA46CA4503D80123AE
:104580005B425344994653464A4659460020C04729
:10459000200025B0F0BCBB46B246A946A046F0BDFF
:1045A0000300693BDBB20D930F2B00D94FE70121CC
:1045B00099408C466D49894661464B4619400F919A
:1045C000634649460B4200D028E10D9B0A2B3AD0A6
:1045D000072B00D03BE70C9B190008C98846002B2D
:1045E00000D14BE121200243914614A98C461F22A1
:1045F0000F2162448C4651460D950C91A246150040
:104600000F9902E020290CD0130064461C402000C2
:104610003730092C00D80738013168541A090F2B9C
:10462000F0D80C9B54460D9D9A460F9133E10C9B9C
:1046300002CB8846002947DB0C9301239C46707807
:104640004E46E14431E70C9B02CB14935346002BBA
:1046500000D138E19C4608780B000C908C4400286F
:1046600001D100F098FC89466146944603E05A78EF
:104670000133002A01D08B42F9D1494662465B1AC8
:104680000C900F93530500D520E102231800104031
:104690000D90134200D1CBE30D930B1BB1469A460C
:1046A0005E460C9822003B003100A8475346013477
:1046B000185D0028F6D1B3464E460D9B002B00D066
:1046C000C7E1149B0C93C9E60C9301239C46283840
:1046D00049420243884670784E46E144E5E67078E8
:1046E0006C2800D17FE180235B001A43FF3B9C468E
:1046F000E14402E780239B001A4301239C46707823
:10470000E144FAE67078682800D173E180231A4307
:104710007F3B9C46E144F0E6672800D103E147284F
:1047200000D15AE1452800D15AE1049207214246BE
:104730000C9B0392073352468B43190002920CC91B
:104740002800009201930C9122003B005946FFF78C
:104750009FFB040082E6C0460D4400100C58002068
:1047600080B70010C4B7001010B8001041900000CE
:10477000462800D1DBE00492072142460C9B0392BD
:10478000073352468B43190002920CC9280000924D
:1047900001930C9122003B005946FFF725F90400D4
:1047A0005CE6631C984622003B0059462520A8473A
:1047B000444653E60C9B04330D93631C99469207C1
:1047C00000D422E10C9B2200187859463B00A847F0
:1047D00043464444012B00D885E23300B8462E00FE
:1047E0005F4625004C469946220043460134390075
:1047F0002020B047AC42F7D12C00BB4635004746DD
:104800004E460D9B0C9329E6DB4B307898460023EF
:104810009946002800D012E60024AEE66F2800D1A9
:1048200088E000D80BE31023782800D1CFE09A432A
:104830000A239C4600230F930A330D9380E05646CB
:10484000B1008919490001330E181878303E010073
:1048500030390929F4D9B2461E000133994628E6B9
:104860000C9B023602CB8A46C9435046C917084002
:1048700082460C933078731C99461AE61023100078
:10488000984311331843814680201300C000034031
:10489000024200D1A9E64B460693082305935346EE
:1048A000049310230393002302930F9B2200019390
:1048B0001CAB009359463B002800FEF79FFF434680
:1048C00004000C93CAE501235B42C3E60F9B5345EA
:1048D00001D953460F930223180010400D90134244
:1048E00000D1B7E10D93D1460B1B9A463300A1448A
:1048F0002E0022004D460C98B9465F469B4608E0C4
:104900004B463900541CB0475346185D002877D0F9
:1049100022009542F4D15B46BB464F46A94635007E
:104920004C461E00C9E680231B011A43FDE62023E6
:104930001A4320E708239C4600230F9308330D9366
:1049400080231100DB0019401A4200D116E10D232B
:104950009A431000802302009B001A4014921842D0
:1049600000D0C2E1802302005B001A4091460C9AFD
:1049700004320F92184200D0B7E2430600D59FE1FF
:10498000030600D419E30C9B1B880993002B00D06D
:10499000FCE110339843002900D1F7E10023994648
:1049A00043460593534604930D9B069003930023BF
:1049B000D2E0582808D0622867D102239C46002301
:1049C0000F9302330D93BBE720231A43103B9C4601
:1049D00000230F9310330D93B2E780231B011A437A
:1049E00020231A43A1E6C0239B001A43F31C9946D7
:1049F000B07882E5C0231A43F31C9946B0787CE571
:104A000035005E46BB464F4657E64346012B00D86D
:104A100063E1631E43449A463300B9462E005F4665
:104A200055469B46A24622004B46013439002020C1
:104A3000B047AC42F7D135005E46BB464F46A14673
:104A400054460C9B4A46187859463B004444A847B4
:104A5000D7E6A1460F9B984500D832E64444E41AB5
:104A60003300B8462E005F4625004C46994622008A
:104A70004346013439002020B047AC42F7D12C0026
:104A8000BB46350047464E461BE680231000DB0040
:104A900018401A4200D10FE1112118008A430D92EB
:104AA0000D9A802311009B0019408C461A4269D14F
:104AB000802311005B00194089460C9904310F9145
:104AC0001A4200D0CAE113005B0600D5F0E01300E3
:104AD0001B0600D459E20C9B00229B5ED9175A1882
:104AE0004A4092B2D90F0C91002B00D1F9E110008D
:104AF00014AA944642461F23149252466344A84681
:104B000016944D460400B946B2461F00159201E0C6
:104B1000202D0FD020000A21FEF79EF901357E19C5
:104B20003031317020000A21FEF796F9260004008A
:104B3000092EEDD8149B4F46A94645469846159B2D
:104B400056469A46169C0D9B06934346059353463C
:104B500004930A2303930C9B02934B4601931CABD3
:104B60002200009359463B002800FEF747FE0F9BAA
:104B700004000C9372E4C0464D3700100C239A4396
:104B80001000E7E607220C9B07339343013294465B
:104B90009C4462460C920CCBD90F0F911100194323
:104BA00000D191E0D91713911291514010911399AE
:104BB0005940119110981199129A139B801A99419A
:104BC0001090119114AA00239446424699461492DB
:104BD00052461F336344A846B24616944E46109C74
:104BE000119DB94615921F0001E0202E10D0200023
:104BF00029000A220023FEF76DF9013630322B001E
:104C0000BA550D0022000400002BEED1092AECD881
:104C1000149B1094119545469846159B4F46B146F6
:104C200056469A46169C0D9B06934346059353465B
:104C300004930A2303930F9B02934B4601931CABEF
:104C40002200009359463B002800FEF7D7FD0400E0
:104C5000FFF704FC0F9B984500D8C1E18023DB00DF
:104C60000D9343460F9A1B199B1A994633002E0049
:104C70004D46B9465F469B460C9122004B46013497
:104C800039002020B047AC42F7D143460C9901339C
:104C90000F930B7835000C935E46BB464F46002BB6
:104CA00000D10EE50D9B002B00D1F6E4002319E6A0
:104CB0000C9B1B781A0015E710239A430D92EFE620
:104CC0000C9B1B78099361E6002399460028AAD122
:104CD000002200231092119374E70C9B2200187895
:104CE00059463B00A8474C468BE50C9AFA3BFF3BE4
:104CF00007329A430133994691444B460C9313680B
:104D0000526815921A4306D110329043002209923C
:104D1000002900D081E06122810600D54122D2B273
:104D20000A9214AA91460A9A00210A3A149242461B
:104D30001792524618925A460991B3461F311E00E7
:104D40000F9B4944BA4619941A9500246746984621
:104D50008946159D16901B920AE03032D2B24B461E
:104D600001341A55A8454AD0202C4AD006000D001F
:104D70003A00002330002900FEF7ACF8D2B2092A2D
:104D8000EBD9149B9C466244D2B2E8E761238206C9
:104D900000D54123DBB20A3B0C93434614A91F22E2
:104DA0008C46159353466244A046B2464C4617972C
:104DB000A9461700099D0D9E1490169308E0303304
:104DC000DBB201343B55B5420ED3202C0CD005008C
:104DD00031002800FEF740F8CBB20929EFD90C9A30
:104DE00094466344DBB2ECE7159B4D46A14644462E
:104DF0009846169B564614989A46179FD0E5B74298
:104E0000B2D9179B57469846189B5E469A461B9BFD
:104E100009949B461698199C1A9D43460593534640
:104E200004930D9B0690039300230293099B05E7CF
:104E30000F9B984500D914E701330F932DE41023FD
:104E4000110099430D91692800D0BAE08023100029
:104E5000DB0018401A4200D122E61DE60C9B1B68BD
:104E6000DA0F1100002B00D18CE0DA1798185040AF
:104E700014AA914642461F23149252464B44A04620
:104E8000A946169704006546B2461F000C9115927C
:104E900001E0202D0FD020000A21FDF7DDFF0135B4
:104EA0007E193031317020000A21FDF7D5FF260030
:104EB0000400092EEDD8149B444698460C9BAC4642
:104EC0001900159B56464D469A46169F0D9B02911A
:104ED000069343460593534604930A23039363467C
:104EE0003CE6002800D02EE602E60C9B1B689946A3
:104EF000002B03D110339843002938D16123820657
:104F000000D54123DBB20A3B0C934346169353462C
:104F100014A91F228C4617932B006244A0464D46CD
:104F2000B246189799461700149C0D9E159008E0FC
:104F30003033DBB201343B55B5420ED3202C0CD0BC
:104F4000050031002800FDF787FFCBB20929EFD912
:104F50000C9A94466344DBB2ECE7169B14944446E7
:104F60009846179B56464D469A461598189F4346B5
:104F70000593534604930D9B0690039300230293DD
:104F8000149BEBE50028A1D172E70C9B1B68D91795
:104F90005A184A40A6E580231000DB0018409C46C2
:104FA0000F901A420FD00220030013400F931042BB
:104FB00019D00023A1460F934CE50C9B1B68099365
:104FC000E4E40A0034E40223180010400D90134278
:104FD00000D03EE54346002B00D042E6FFF771FBD0
:104FE00001330F937FE463460D93F3E70EB4012280
:104FF00030B584B007AC08CC064D01000094280001
:1050000052420394FFF702FA04B030BC08BC03B06C
:105010001847C0464537001010B50C0084B0039403
:10502000012402A902900093034813006242FFF793
:10503000EDF904B010BDC046D939001010B5094AC9
:105040000300146884B0002C08D0012200910648A7
:10505000524203A9A047012004B010BD00F0B4F9EA
:105060000020F9E70C580020C939001000BEFDE708
:10507000094A03001068002805D00849C3188B426C
:1050800007D81360704706480449C31810608B4264
:10509000F7D901204042F5E7F45300200000042036
:1050A000C474002010B5FFF7E1FFC04670B5FDF7EE
:1050B0006DFD074D074EB54209D20024013E761B17
:1050C000B60808CD984723000134B342F9D170BD2A
:1050D0008CB2001090B20010030010B5080011004F
:1050E0001B68984710BDC046F0B5C64600B5437D65
:1050F00007000C001600002B46D0002A17DD0B78A5
:105100000A2B24D000239846012E13D00125290014
:10511000635C01350A2B26D0B542F8D1464509DC3F
:10512000A419013C23780D3B5A4253413B7580BC86
:10513000B846F0BD4346E018A419F11A013C3B689B
:10514000984723780D3B5A4253413B75EFE7037D67
:10515000002BD7D102210F483B689847012EDFD0A2
:1051600001239846D2E7631E5B5C0D2BD4D08845A3
:1051700004DA4346C91AE0183B68984702210548FB
:105180003B68A8469847C7E7036811002000984786
:10519000CDE7C04670B90010F0B5C6460B680600F2
:1051A0000C0000B5802B06D05A1C2260E418267132
:1051B00080BCB846F0BD0F4B1D68002D16D00B1DEE
:1051C00098460D4F02E02D69002D0FD02B68002B63
:1051D000F9D03B68002B01D0AB42F4D12800414606
:1051E0002268FFF781FF2D69002DEFD101220023F6
:1051F000DBE7C046D4530020E0530020F0B545461D
:10520000DE464E465746E0B583B091461C008046C8
:105210000D00FCF79DFF0023304A12184B41002B74
:1052200002DA01222E4B52422E4908008A4605F02E
:10523000DFFF07006B1C03D1404605F0FFFD0500B2
:10524000002C27D0284E294B1C68002C18D04B4628
:10525000002B21D1264B994602E02469002C0FD067
:105260002368002BF9D04B461B68002B01D09C42D1
:10527000F3D120002A004146B0472469002CEFD129
:10528000002F26D1280003B0F0BCBB46B246A94689
:10529000A046F0BD174ED6E7154B99460A239B460C
:1052A00002E02469002CEBD02368002BF9D04B4698
:1052B0001B68002B01D0A342F3D12A0041462000F5
:1052C000B0476B465A462000DA71D91D0122B0471B
:1052D000E7E7504605F034FFD4E7C04640420F00F0
:1052E000FFFFFF7F20420020E9500010D453002030
:1052F000E0530020D95000100A4A1368002B05D152
:105300000CE01A001B691032002B07D08342F8D141
:10531000002902D118691060196170470029FCD07A
:105320001060FAE7D453002010B500F0ABF901206B
:1053300010BDC046F0B5CE46474680B583B06B463B
:105340000600DD1D2870FCF703FF0023194A121820
:105350004B41002B02DA0122174B52421749080039
:10536000884605F045FF164B81461C68002C14D07A
:10537000144F02E02469002C0FD02368002BF9D0D1
:105380003B68002B01D09C42F4D12000012229006F
:10539000FFF7AAFE2469002CEFD14B46002B05D164
:1053A000300003B0C0BCB946B046F0BD404605F081
:1053B000C7FEF5E740420F00FFFFFF7F20420020BD
:1053C000D4530020E053002070B5040005F036FDF2
:1053D00001230100050001222000FFF70FFF084B09
:1053E0001C68002C06D06368002B05D09847246900
:1053F000002CF8D1280070BD2469002CF3D1F9E706
:10540000D4530020F0B5CE46474680B5A3B0040083
:105410000D00FCF79DFE0023274A12184B41002B7C
:1054200002DA0122254B5242254E300005F0E0FE03
:1054300000232200019307002B00224801A9FFF757
:10544000EBFD214B804699461C68019B002B1AD02E
:10545000002C2FD01D4D02E02469002C0FD02368B2
:10546000002BF9D02B68002B01D0A342F4D12000EF
:10547000019A02A9FFF738FE2469002CEFD14B46B0
:105480001C6800230193002C06D06368002B0BD00E
:1054900098472469002CF8D1002F07D1404623B04B
:1054A000C0BCB946B046F0BD2469ECE7300005F059
:1054B00047FEF3E70194EFE740420F00FFFFFF7F55
:1054C0002042002099510010D4530020E0530020C6
:1054D0000FB400B583B004A901C90191FFF792FF91
:1054E00003B008BC04B01847F0B5002915DD0E4B19
:1054F0000D271A680D4B0E4CD3185D426B414518B1
:1055000020215B001E5F0478A64207D093691942F0
:10551000FCD101301460A842F5D1F0BD9369194265
:10552000FCD11760F2E7C046B07400200080FCBFD9
:10553000AC740020204B70B504000D1E1E682ADDDF
:10554000002010211D4B013C1A689369194214D1A7
:10555000013093691942FCD1136823548542F4D178
:10556000002E08D050239363516B183B0B40144915
:105570008C4662441360280070BD002E08D0502372
:105580009363516B183B0B400D498C46624413608A
:105590000028F1D10CE0002E0AD05022074B1B68E6
:1055A0009A63596B183A0A4005498C4663441A605D
:1055B00003204042E0E7C04698530020B07400202A
:1055C00034100000064B10B51B68002B06D00021DC
:1055D000044A12689163044A1068984710BDC04697
:1055E00098530020B07400209C5300200822034BE5
:1055F00019688B691A42FCD17047C046B07400200C
:10560000F8B51A4F1A4B3A680500D318584243416F
:10561000184E14331C003368002D02D0002B0FD01D
:10562000F8BD002BFCD0002120009563FBF720FE85
:1056300020001149FBF75EFF104B35601D60EFE75E
:105640000E4B200019600C493560FBF72FFE01213D
:105650002000FBF70DFE50223B689A63596B183A05
:105660000A4007498C4663441A60D9E7B0740020A9
:105670000080FCBF98530020C55500109C530020AB
:10568000341000000D4B10B51B780D4B0D4C1B78E2
:105690000D4B02211B780D4B00202360FBF76AFCA9
:1056A00002210120FBF766FCE12120684902FCF79A
:1056B000EBFD01210648FFF71FFE10BDD0BB001017
:1056C000CCBB0010B0740020C8BB001000400340E9
:1056D000603C0020F0B5D6464F4646461500C0B5A2
:1056E00004000E003022002182B02800FEF71EF8D0
:1056F000524A01209446737863441B052360F37873
:10570000984000F0BDFEB178F77889464C491123E6
:105710008846F9028C46414660469A462268494BC3
:105720000140D3181B0DDB004B44DB030B435146F8
:105730000B434946081DA021C9058C46800010185E
:10574000BA01624413613D4B50609C464B467078F1
:10575000E7606044000520606360337963441B05A3
:10576000236173796361B379E3613378AB70F27B62
:10577000002A59D10133DBB2EB70EB78324B334F57
:105780009C46334B61462764E16363642A73B389A3
:105790004946238700F036FC6169206900F032FC3D
:1057A000E169206900F02EFC2A003100200005F09C
:1057B000E7FCA8780121C0B2FBF740FCE8780121A2
:1057C000C0B2FBF73BFCA8780321C0B2FBF746FC54
:1057D000E8780321C0B2FBF741FC01212823002215
:1057E0002970EA546A461B4B01A81B49938005F0B7
:1057F000D7FC6A465A2301A81849537105F0D0FC1A
:105800006A461E2301A81649537105F0C9FC3C23C2
:105810006A46144901A8537105F0C2FC02B0E0BC0D
:10582000BA46B146A846F0BD013BDBB2EB70AB789F
:10583000074B0D4F9C46044BA4E7C04602050000F1
:10584000FF7FE0FF0000E0AF302200201C2200209C
:105850000822002080D2FFFF6C53002060580020F7
:10586000A474002080720020F4210020F0B53F4C89
:105870000500227883B0002A08D030220120A25CE3
:105880004042002A01D003B0F0BD3034A570002999
:105890005ED06B1EDBB2E370012228002173002171
:1058A000FBF782FBE07801220021C0B2FBF77CFB12
:1058B0002F4B304E9C46316828006144090D06315B
:1058C000C9B2FBF757FB2A4B31689C466144E0782C
:1058D000090D0631C0B2C9B2FBF74CFB012128000B
:1058E000FBF776FBE0780121C0B2FBF771FB03CE3A
:1058F0002E00E378DBB2203E32D40122B2400126F2
:105900003700AF401D00203D26D4AE400125324374
:1059100001922A009A40174300230022009700F0CA
:10592000B1FCA0780121C0B2FBF788FBE07801212F
:10593000C0B2FBF783FBA0780321C0B2FBF78EFB5C
:10594000E0780321C0B2FBF789FB002025709AE7BD
:105950006B1CDBB2E3709FE72025ED1AEE40D5E724
:1059600020260122761BF240C9E7C04610720020B3
:105970000000E0AF84580020F0B5C646060000B530
:10598000674D684C2A0084B031002000FFF7A2FE6A
:10599000022305202B74FCF7F5FDFDF71DFE62497F
:1059A000051CFDF7FEFDEC218905FDF7F7FD80469E
:1059B000FDF73AFE87B20020002F0DD03800FDF72A
:1059C0000BFE011C4046FDF7E6FD8721C905FDF7EA
:1059D000FCFDFDF729FEC0B24A23E054023BE7522A
:1059E0005249281CFDF7DDFDEC218905FDF7D6FDA8
:1059F0008046FDF719FE87B20020002F0DD0380039
:105A0000FDF7EAFD011C4046FDF7C5FD8721C905EC
:105A1000FDF7DBFDFDF708FEC0B25223E054023B68
:105A2000E7524349281CFDF7BCFDEC218905FDF731
:105A3000B5FD8046FDF7F8FD87B20023002F0DD09D
:105A40003800FDF7C9FD011C4046FDF7A4FD872184
:105A5000C905FDF7BAFDFDF7E7FDC3B24E22A35419
:105A60004C233449E752281CFDF79BFDEC218905A6
:105A7000FDF794FD071CFDF7D7FD85B20020002D32
:105A80000DD02800FDF7A8FD011C381CFDF783FD93
:105A90008721C905FDF799FDFDF7C6FDC0B2562364
:105AA0000421E054244A023B2448E55205F058FB07
:105AB000234B00211870234A002005F051FBB37BD3
:105AC000002B0ED0204B1868204C2378002B03D1DC
:105AD00000280FD1012323701D4804B080BCB846B4
