:020000041000EA
:1000000000B5324B212058609868022188439860DF
:10001000D860186158612E4B002199600221596106
:100020000121F02299502B49196001219960352056
:1000300000F044F80222904214D00621196600F024
:1000400034F8196E01211966002018661A6600F04E
:100050002CF8196E196E196E052000F02FF8012189
:100060000842F9D1002199601B49196000215960AB
:100070001A491B48016001219960EB211966A021F2
:10008000196600F012F800219960164914480160C1
:100090000121996001BC002800D000471248134993
:1000A000086003C880F30888084703B5996A0420EC
:1000B0000142FBD001200142F8D103BD02B5186610
:1000C0001866FFF7F2FF186E186E02BD00000240BE
:1000D000000000180000070000035F00212200005C
:1000E000F4000018222000A00001001008ED00E03C
:1000F00000000000000000000000000074B24E7A12
:1001000000200420F7010010CB010010CD010010E9
:10011000C9010010C9010010C9010010C901001077
:10012000C9010010C9010010C9010010CF01001061
:10013000C9010010C9010010D1010010D301001045
:10014000C1010010C1010010C1010010C101001067
:10015000C1010010C1010010C1010010C101001057
:10016000C1010010C1010010C1010010C101001047
:10017000C1010010C1010010C1010010C101001037
:10018000C1010010C1010010C1010010C101001027
:10019000C1010010C1010010C1010010C101001017
:1001A000C1010010C1010010C1010010C101001007
:1001B000C1010010C1010010C1010010C1010010F7
:1001C000EFF30580103800BE00BE00BE00BE00BECA
:1001D00000BE00BEF2EB887178BE001094BE001025
:1001E0003802001090A31AE71E481F49086006C88D
:1001F00081F3088810471D480068002801D019487D
:10020000F3E70DA40ECC002902D000F012F8F9E7B4
:100210001749184A002000E001C19142FCD116495B
:100220008847164988471649884700BEFDE701C937
:1002300001C29A42FBD3704794BE0010C000002058
:1002400010420020E4FF0010000004200000042001
:10025000E4FF001000100420001004200000000043
:10026000704700000000000008ED00E0000000D032
:1002700010420020D07200204D550010D502001011
:1002800045550010F8B5C04606480749091A8B10B5
:10029000C90FC91810B5491003D0044B002B00D06A
:1002A000984710BD104200201042002000000000BE
:1002B000054B10B5002B03D00449054800E000BFF2
:1002C000FFF7E2FF10BDC046000000008857002085
:1002D00098B4001000B585B0144803AB02AA01A978
:1002E00001F0DEFF002803D11148104900F014FE90
:1002F000039A0299019801F0F7FE0A2001F0B8FB79
:1003000005F01AFF0B4805F08DFF01236A46002017
:10031000938103A906F0C0FB01200021404206F0B2
:1003200035FC002007F06CFAF6E7C046C0D40100A7
:1003300098B400104D03001000B591B040226946FA
:10034000002007F00FFA11B000BDC046F0B50A203A
:100350008BB001F08DFB194D01AA1300290051C982
:1003600051C3096801201960642108F077FB05ACCE
:100370002B002200D0260127103323CB23C203CB2E
:1003800003C2360620CC280000F0A0FD3B00AB40A5
:1003900073620AAB9C42F5D102236A46694601208A
:1003A000138008F05FFB0021022005F09BFB012079
:1003B0000021404208F01EFEF9E7C04690B8001048
:1003C000F0B5CE46474680B5C9B005AE05000F0072
:1003D00032001D4B13CB13C23900280009F0EAFF8D
:1003E00012236B44994604AB9846040019004A4610
:1003F000280008F017FB4B464246A00080591B8896
:100400001288124902900197009508A805F03EF85D
:10041000013C020008A9002007F030FAE4B20020F5
:1004200007F0EEF9012C04D949B0C0BCB946B0467A
:10043000F0BD3900280009F0D3FF0028F4D11E22B6
:10044000034907F01BFAEFE7B4B80010CCB4001072
:1004500000B5001010B5094CC0B00B00020021001F
:10046000684605F013F869460200002007F006FA16
:10047000002007F0C5F940B010BDC04620B50010FF
:10048000F0B54E464546DE465746E0B593B005000A
:100490000E00140009F08EFF012800D1B4E00228FC
:1004A0000DD03100280009F09BFF002800D1A6E004
:1004B00013B0F0BCBB46B246A946A046F0BD01222F
:1004C000A256032092460222A25623789146012288
:1004D000110019408C4620561A4200D1E3E0D02288
:1004E000802112064902916102210A001A400892F5
:1004F000194200D0E3E0D02180270906BF024F61F6
:100500001027390019401F4200D0E3E0D027802295
:100510003F06D2027A6108273A001A4090461F42ED
:1005200000D0E3E0D02780223F0612037A615B0708
:1005300000D5E3E0D02380271B067F035F6163467D
:10054000002B00D0F0E02D330993089A0690574213
:100550007A4124275242BA434F42794118274942EF
:10056000B9438B4646218C4641464F427941142778
:100570004942B943884642214846E3448C460590A7
:100580005046E0440490404603905846523201924F
:10059000099A0AAF68490290009238002A0004F0D4
:1005A00075FF39000200002007F068F9002007F00D
:1005B00027F92100380000F0A7FA012300220C9946
:1005C000F87909020143FB56BA560591B979002022
:1005D0000491052179560391042179560291032152
:1005E00079560191022179560091032107F030FBE1
:1005F0003100280009F0F4FE002800D058E71E2240
:100600004E4907F03BF953E7082399460AAB984651
:100610004B4B00219B4622239A46A71CA1443B78C2
:10062000002B13D0504622785B000240501E8241BE
:100630005B449B5C42461370002B07D00A2B6DD0A5
:1006400041460122002007F019F901210137B9457F
:10065000E5D100295ED12100404600F0C1F84146B5
:1006600043464246C87989685B780902014312789B
:100670000591414689795BB204914146497952B26C
:1006800049B2039141460979002049B2029141469D
:10069000C97849B201914146897849B20091032154
:1006A00007F0D6FAFDE6D0228021120649025161F8
:1006B00002210A001A400892194200D11BE7D021FA
:1006C00080270906BF028F611027390019401F4299
:1006D00000D11BE7D02780223F06D202BA6108274B
:1006E0003A001A4090461F4200D11BE7D0278022D3
:1006F0003F061203BA615B0700D41BE7D0238027B3
:100700001B067F039F616346002B11D04D23099385
:10071000013B1AE7002007F073F89CE70122094922
:10072000002007F0ABF88BE72D2309931F330CE76C
:100730004D230993203B08E748B5001000B5001091
:1007400090B7001044B500100048704700BA001080
:1007500000487047C4B8001070B5002823D00428A2
:100760002CD8174B8000C55828000AF069FCC0B28D
:10077000041C1F2812D8E4B2002808D00023114A14
:10078000E95C01331180D9B202328C42F8D8C02220
:100790000134E3B25B00920013430CE01F24E4B287
:1007A0000028EBD1F3E7064B02221968054803F055
:1007B00013FAC1239B000448038070BD0020FCE7AE
:1007C000B03B0020C6490020C449002000487047C3
:1007D00028B900107047C046002070477047C046D7
:1007E000F0B5C64600B58D7804000A00CE7882B018
:1007F0001A2D00D116E11A2E00D127E10F791A2FF8
:1008000000D1F7E04B791A2B00D1F3E08B791A2B4A
:1008100000D1EFE0CB791A3B59424B41DBB298460D
:10082000162D00D10CE13000162E00D12FE1162F2D
:1008300000D1E2E05179162900D1DEE09179162944
:1008400000D1DAE0D17916390B0059425941C9B2C9
:10085000042D00D1EFE0042800D11CE1042F00D1C9
:1008600033E15079042800D1C9E09079042800D1FF
:10087000C5E0D079042800D1C1E000239C46072DB3
:1008800000D114E1072E00D1B2E0072F00D1AFE074
:100890005079072800D1ABE09079072800D1A7E074
:1008A000D0790738030058425841C0B2884500D17A
:1008B00093E04346002B00D07AE07F2390494B70B1
:1008C000604500D17BE06346002B00D187E07F23A9
:1008D0005B420B702C2D00D183E02C2E00D180E0E8
:1008E0002C2F00D17DE053792C2B00D179E0937926
:1008F0002C2B00D175E0D379C8792C2B00D171E075
:100900008B681B020343012083431D0A0D721D02E5
:100910002D0E4D721D0ECB718D729078152859D009
:10092000D078152856D01079152853D0507915282D
:1009300050D0907915284DD0D07915284AD0042070
:1009400083431D0A0D721D022D0E4D721D0ECB71BB
:100950008D72907808283AD0D078082837D010794E
:10096000082834D05079082831D0907908282ED022
:10097000D07908282BD0082083431278D00723D5BC
:100980000220034392071CD58022D2001343180A89
:1009900008721802000ECB7148721B0E0B22200049
:1009A0008B7203F019F9200002B080BCB846F0BD8C
:1009B0007F2353495B424B70604500D083E700239F
:1009C00087E7504A1340E2E702208343DAE7082032
:1009D0000343D2E704200343B3E700236EE77F23FA
:1009E00077E7C8798B681B020343012003438CE738
:1009F00001205BE70123984612E7012128E7012344
:100A00009C46072D00D03DE70120414566D0434676
:100A10003B49002B52D17F334B700028DFD0434637
:100A20000B705AE70123300098460F79162E00D03C
:100A3000FDE6012112E7072E0FD001239C4624E793
:100A4000042E14D0042F4DD001210AE7162D0AD010
:100A500001231A2098461779E9E6884512D0012328
:100A600001209C4625E7012317799846EAE70123F0
:100A700001219C46072F00D00AE718004346002BAF
:100A800000D11AE700231E494B70002321E7042DF3
:100A9000CFD10121D1E7072DB6D001239C46072FE6
:100AA00000D0F5E60120414500D002E7EAE700204A
:100AB0008845ACD112497F330B800EE781234B7000
:100AC00000288CD000230B7007E701239C46072DDC
:100AD00000D0D7E6414501D0180098E70023084927
:100AE0000B80FAE6072E03D0012301219C46CFE6B6
:100AF00001239C4618004346002B00D1DDE6C1E7E8
:100B000050530020FFFBFFFFF0B505000120022637
:100B100008560F008E5783B0002848DC00D087E0CD
:100B2000564CA070002E25DC5DD1A3682671E179BA
:100B30003A781B020B43D10715D580210B4392074E
:100B400015D540221343190A21721902090EE371C7
:100B500061721B0E0B2221002800A37203F03CF8E7
:100B6000280003B0F0BD80218B439207E9D44022D6
:100B70009343E8E7300002F0A9F9414A414B02F003
:100B800018F9414A414B02F08FFD0022404B02F020
:100B90000BF902000B003F483F4902F00AF93F4AB7
:100BA0003F4B02F001F902F0A9F946B2BDE702F0AD
:100BB0008DF9334A334B02F0FCF8334A334B02F0E1
:100BC00073FD0022324B02F0EFF802000B003148B7
:100BD000314902F0EEF8314A314B02F0E5F802F00B
:100BE0008DF940B29CE7704202F070F9244A254B1F
:100BF00002F0DFF8244A254B02F056FD0022244B78
:100C000002F0D2F802000B002248234902F0D1F88A
:100C1000224A234B02F0C8F8802300900191009AE9
:100C20001B061000019AD11802F068F946B27CE761
:100C3000404202F04BF9124A124B02F0BAF8124A43
:100C4000124B02F031FD0022114B02F0ADF8020010
:100C50000B001048104902F0ACF8104A104B02F09B
:100C6000A3F8802300900191009A1B061000019ABE
:100C7000D11802F043F940B252E7C0465053002069
:100C8000C98E8D40BC3C504037C2A2224EA7EE3FD9
:100C90000000F03FD60C5F15FE4E68C0A857CA3260
:100CA000C44F68401300002010B5642900D010BD67
:100CB00010221900024802F08FFF0120F7E7C0461A
:100CC000C43B002010B5024804F092FF012010BD83
:100CD000C43B002010B50138C0B205F07DF810BD4E
:100CE00010B50138C0B205F097F810BD0138C0B298
:100CF00043000D4A1B181B019B18D02230B5120669
:100D000099785068DC78536801221500A5408A4024
:100D10002B405C4263411040424250415B0018430B
:100D2000431E9841C0B230BD2C7100200138C0B2C2
:100D30004300044A1B181B019B18587B0123584091
:100D40007047C0462C71002010B50138C0B205F0C4
:100D500087F810BD7047C046F0B50D0083B001AFF5
:100D6000040039002800160008F026FD7A780023D8
:100D7000002A04D0FB78013B5A425341DBB2013CCC
:100D800032002900E0B205F087F803B0F0BDC0469C
:100D900010B582B06C46248A01380094C0B205F0C8
:100DA00007F902B010BDC04610B50138C0B205F059
:100DB00047F910BD10B50138C0B205F0C9F810BD33
:100DC000094A83009A1810B51468402254408032B2
:100DD0002240064CC000A44663441A60044B9C4663
:100DE0006044416010BDC04604C0014004D00140D1
:100DF00000400140074B8000C3181B68C9009200E7
:100E00000A435A400C231340034A9446604403604B
:100E10007047C04604C0014004D00140064BC000EA
:100E2000C3181B6809045940C0239B021940034B97
:100E30009C466044016070470440014004500140FA
:100E4000064BC000C3181B6809025940C0239B0011
:100E50001940034B9C4660440160704704400140C8
:100E600004500140064BC000C3181B6809035940D9
:100E7000C0239B011940034B9C46604401607047AE
:100E80000440014004500140054B8000C3181B681A
:100E90004B4001211940034B9C4660440160704760
:100EA00004C0014004D00140064B8000C3181B68F9
:100EB000054A090159409446302360440B400360C1
:100EC0007047C04604C0014004D001400123D02235
:100ED0008340120693629361094A83009A1811684D
:100EE0004022514080320A400649C0008C4663448B
:100EF0001A60054B9C460523604443607047C0461A
:100F000004C0014004D00140004001408023DB05C3
:100F10001868000F7047C0460FB400B5084883B08A
:100F200004F084FC049B002B07D005A91800019154
:100F300004F0D4FA034804F079FC012004F0E6FA46
:100F4000B4B50010C4B50010EFF3108072B6034AB8
:100F50001368002BFCD0BFF35F8F70472C0100D0CB
:100F6000BFF35F8F0022024B1A6080F31088704736
:100F70002C0100D070B5EFF3108C72B60D4D2B68BC
:100F8000002BFCD0BFF35F8F0724CB08C618C05CD2
:100F900001230C40A3401C000440034207D1184326
:100FA0003070BFF35F8F2C608CF3108870BD100021
:100FB000FFF7B2FF2C0100D0F8B54746CE46884671
:100FC00080B5EFF3108C72B61C4D2C68002CFCD051
:100FD000BFF35F8F9A4222D807210126894602E09B
:100FE0000132934218D34D4637001540AF40D40824
:100FF0000119045D2742F3D110003C430C70BFF38C
:101000005F8F00220D4B1A608CF3108800280EDBD6
:10101000C0BCB946B046F8BD01204042EFE7BFF37F
:101020005F8F00232B608CF31088012040424346E1
:10103000002BEDD00898FFF76FFFC0462C0100D0C1
:10104000044A1078431CDBB2172B00D9102313700D
:101050007047C046D43B002010B5064B064C82B00A
:101060000100009318221F232000FFF7A5FF02B004
:1010700010BDC046C8B500100C5300200021044B21
:10108000044ABFF35F8F02C39342FAD17047C04650
:10109000000100D0800100D0054B064A1360064ACB
:1010A000136053609360D360136153619361704721
:1010B0008080808000E400E004E400E01F2318400A
:1010C0001E3B8340002905D0C021044A49005350EB
:1010D00013607047802201498B50FAE700E100E07D
:1010E00001228240034B1B6813405A1E9341D8B221
:1010F0007047C04600E100E070B50D00EFF31086C8
:1011000072B60F4A1368002BFCD0BFF35F8F0D4BF4
:1011100010309B6884001B590B4A934203D09D42B8
:1011200001D001F095FA074B9B681D51BFF35F8F0B
:10113000BFF35F8F0022024B1A6086F3108870BDE8
:10114000240100D000ED00E0C1010010F0B55746C9
:101150004E46DE464546E0B585B0060000911700D4
:10116000EFF3108B72B66A4A1368002BFCD0BFF302
:101170005F8F0025674B5D579A46002D00DAA9E086
:101180006B00654C01935B199B009846A146C144D6
:101190004B4652469B7910361370604BB6009B68E5
:1011A00099590B1B2F2B33D95D4B994200D0ACE0E2
:1011B000019B42469C465B4B6544AD0063535A4BD2
:1011C0000232A218043B9B1A1B05584A5B0D651995
:1011D00013436B80564B0121AB80FF23AB71009B07
:1011E000EF71AB604B460B4319004C4B9B68995118
:1011F000BFF35F8FBFF35F8F0022454B1A608BF305
:10120000108805B0F0BCBB46B246A946A046F0BD6A
:1012100001200A008243D3798C46BB4231D845462F
:10122000130044491B1B5B415943090D3D4B63535C
:101230003D4B02356519043B5B1B1B053B4D5B0DAC
:101240002B43AA464D466B800425AC465546E044E8
:10125000131F44441B1B1B055B0D1D434B4699711B
:1012600000999D8099604946DF71334B01431360BB
:10127000BBE75800C01880002018C179B9422FD9A7
:1012800002000623D356002BF3DA02932B4B614660
:101290000393131D9A4604235B429C46E144504647
:1012A0004B461B1A1B055B0D9C46204B95719846BF
:1012B0006346404603439380019B5A199200039B67
:1012C000A418A380029B1C4AA371009B2260E771B3
:1012D000A3608AE701F0BCF9002553465D574FE74C
:1012E000908802934005131D9A46031561469C465B
:1012F0004046D444634604302018181AE023000501
:10130000400D1B0218430390C5E701F0A1F94FE718
:10131000240100D0CA720020D83B002000ED00E07C
:10132000C101001000A1FFFF083C002000E0FFFF0A
:1013300001BDFFFFAAAA00000148804701BD0000CF
:1013400070B501240443EFF30581EFF3108C72B6FE
:10135000214A1368002BFCD0BFF35F8F1F4B0500A1
:101360001F4AED1A6D416A43120D1E4D8900AE6889
:1013700052B27658A6421CD00621595691421CD032
:1013800012215956914222D01E215956914220D005
:101390002A2159560324914210D0134B19781A7000
:1013A0008171BFF35F8F00220B4B1A608CF31088A2
:1013B00070BDAB680D4C5C50EFE70024610009196B
:1013C00089005B18FF21997109499980E5E701249B
:1013D000F4E70224F2E7C046240100D0D83B002005
:1013E000AAAA000000ED00E0CA720020C1010010AE
:1013F00001BDFFFF024B9C466144890001607047BC
:101400004000003470B5114C114DAC420FD2FF2694
:101410002368002B0CD0FFF713FE01002000FFF71C
:10142000E9FFA680BFF35F8F0834AC42F0D370BDF4
:10143000FFF706FE01002000FFF7DCFF2671BFF377
:101440005F8F0834AC42E3D3F1E7C046004200208E
:101450001042002010B50400FFF7F2FD010020004B
:10146000FFF7C8FFFF232371BFF35F8F10BDC04696
:1014700010B504000120FFF7EFFD034BC3189B00DC
:101480002360BFF35F8F10BD400000340A4B196822
:10149000EFF3108072B60A68002AFCD0BFF35F8FAA
:1014A0001B68BFF35F8F00221A6080F3108840BF73
:1014B000002000217047C046A8720020F0B5DE462B
:1014C00057464E464546E0B587B0EFF30583032205
:1014D00001251A40954091008846A946B34B0392D6
:1014E0005C58B34B1D60B34B04934B46B248436307
:1014F0000823E55E002D37DAA3881BB2002B00DB42
:10150000ADE0A379002B00D0EEE00823E05E0028D8
:1015100020DB430062691B18DB00D3189E68DD687E
:10152000731C00D111E1A44801004144826A0B6997
:10153000B71A9B1A9F4215D30123026A039883406E
:101540001A420FD09C4800F037FC8D4202DCCCD10F
:101550008642CAD940BF07B0F0BCBB46B246A946D6
:10156000A046F0BD0E61EDE762696B0092465B1923
:10157000DB009A4453469E68DF6800F01DFC8F42F2
:10158000BADC00D103E1002F00DAE8E0524653460E
:1015900052691B699346049A934200D1D9E052469E
:1015A0000821605E52880004594610439847009015
:1015B00001910099019A0B001000134300D1CEE075
:1015C00013000A00B61A9F41002806DB7A4800F093
:1015D000F3FB009E019F36184F4153469E60DF602B
:1015E00000229A5E002A00DA86E7530099186069A3
:1015F000C900411802938B68C9689B46B94200DD57
:101600007AE702D1B34200D976E708239C46A44486
:10161000059565462281A446029B2C0006E05300F6
:101620009918C90041188D68C968AB469B18DB0042
:10163000C318B94206DC00D1B3E01C000023E25E0F
:10164000002AECDA230064469C4653461A8063461F
:10165000059D1D80A3881BB2002B00DA51E722698B
:10166000EFF3108172B61368002BFCD0BFF35F8FCD
:101670000123A7885B42A3803FB22369BFF35F8F3A
:1016800000221A6081F31088002F00DA39E7230066
:10169000083322009A4666697B00DB19DB00F318E9
:1016A000996850468C460824115FDD68002910DBDC
:1016B000029306E0AB4244D00023E15E2000002903
:1016C00006DB4C006418E4003419E368AB42F1DD3A
:1016D000029B078000201F5E1980002FDCDA1400B7
:1016E000A379002B00D110E70023A3712600082363
:1016F000E15E08364B1C00D12CE70800A246656964
:1017000002E03E004B1C1AD04B005B18DB00EF18C8
:101710000A008C46E95E7B881BB2002BF1DA0123BC
:101720005B42DC17BB60FC60824205D053463180CF
:101730001B893B8053461A8160464B1CE4D15446BA
:10174000E5E6A3686345B7D9C2E76B1C00D0EAE6BB
:10175000F8E65B4658461B69984700281BD153465C
:101760001B8822692381EFF3108372B61168002968
:10177000FCD0BFF35F8F514662880A802269658082
:10178000BFF35F8F0021116083F31088B4E68642B7
:1017900000D8F8E6B0E65B461A685B6800920193F1
:1017A00007E7B34500D848E74CE7C0468C710020F6
:1017B0003C700540BD1400100040054070B52E4C33
:1017C0002569002D04D00A212C48FFF713FE70BDB7
:1017D0002B4E0321300000F0E5FAE660FFF730FC05
:1017E000284B03229C46D02322701B061B68012134
:1017F0006370254B6044A3600F23800020610220AA
:10180000638063694942A18019800231198647319A
:101810001D83585218315A5275325C399952183218
:1018200001319952183201319952183201319952CD
:10183000083518329D52023118329952183201314E
:101840009952183201319952183201319952183295
:10185000013199521832013199520C4B0C49DC601C
:1018600001303562FFF748FC01210320FFF726FC19
:10187000084B1D60A7E7C046203C0020A87200204E
:101880000040054040000034FFFF10008C71002034
:10189000BD14001038600540F0B5C646060000B51E
:1018A00018200F00904602F049F9051E3FD018217C
:1018B000404602F061F939006861300000F072FAC8
:1018C000EE60FFF7BDFBD0222F70120612681A4B94
:1018D0006A709C460122434652429BB26B819B1820
:1018E0006B8043466044800028612A81AA80002BD7
:1018F0000BD05A006C694244D200104B121923805D
:10190000013318349BB29442F9D10124BC400C4BF2
:10191000BA0038000B493462D550FFF7EDFB0121C6
:101920003800FFF7CBFB084B9C4666443460280028
:1019300080BCB846F0BDC04640000034FFFF000048
:101940008C710020BD1400103820000070B501001B
:101950000469EFF3108C72B620680028FCD0BFF346
:101960005F8F02200D5E4C6968004019C00024188A
:101970000869002D36DB26884E80BFF35F8F002676
:1019800006608CF31088E36063880498013320615B
:101990005B0405985B0CA26060611A1C002B1FD0D1
:1019A00093B22804628018430A69EFF3108C72B670
:1019B0001368002BFCD0BFF35F8F8B8823808D8052
:1019C0000B69BFF35F8F00221A608CF310880B78CD
:1019D00001329A40CB6808498C4663441A6070BD56
:1019E0000122DDE7BFF35F8F002303608CF31088D3
:1019F00001204042F3E7C0463C20000010B5438977
:101A00000A1493421ADD53009B184269DB00D31875
:101A10000469EFF3108C72B62268002AFCD0BFF381
:101A20005F8F5A88090494B2090C8A4208D003696E
:101A3000BFF35F8F00221A608CF31088002010BD66
:101A40008022120214435C80012302698371BFF378
:101A50005F8F002111608CF31088044902788C4656
:101A60009340C268012062441360E8E73C20000014
:101A7000F0B5C64600B582B0040000F0A5F9FA2220
:101A800006000F00200000230021920001F0B6FFA5
:101A90008019794104000D1E02DA01242E4D6442A2
:101AA00006267642F71736196F41AF4214D811D087
:101AB00000F08AF932003B00121A8B41002B15DC32
:101AC000002B46D02000290000F00AFA02B080BCAA
:101AD000B846F0BDA642EBD90026002700F074F905
:101AE00032003B00121A8B41002BE9DD00F06CF94B
:101AF00032003B00121A8B41002B0ADB00230193BA
:101B0000164B3200009316483B00FFF71FFF0130D1
:101B1000D8D000233900B0469C46124A1248536A76
:101B2000994204D8966A4645CCD29942CAD10668F1
:101B3000EFF3108772B63368002BFCD0BFF35F8FD2
:101B40000368BFF35F8F66461E6087F3108820BF6F
:101B5000E5E7002AB6D0C9E7FFFFFF7F8D1400102C
:101B6000203C002000400540A8720020F0B55746F8
:101B70004E46DE464546E0B506000F0085B0EFF361
:101B8000058399468B46002B12D0384900204B6ABA
:101B9000BB4206D38A6ADB1B591E8B41B2424041CD
:101BA000184305B0F0BCBB46B246A946A046F0BDFE
:101BB0002F4B9A46DB68984653461B784046039362
:101BC00000F0FAF84246039B040004339B009B5844
:101BD0000D001B1A39003000001BA941894510DC9B
:101BE0000DD020BF214A0020536A5B45D9D3926AA9
:101BF000DB1B591E8B41B24240411843D1E783425F
:101C0000EFD900F0E1F832003B00121A8B41002BB3
:101C10001ADB00230193174B3200009350463B0020
:101C2000FFF794FE011E0FDD104B5A6A5A451BD375
:101C30009B6AB34216D35046FFF7E0FE0B4A0020E2
:101C4000536A5B45ADD3D2E7084A0020536A5B452F
:101C5000A7D30020926ADB1BB24240415A1E934137
:101C600018439EE75A45E6D120BFE4E7004005400F
:101C7000203C00208D140010F0B5CE4647461100E0
:101C800080B583B004009C460C9D194300D16CE0E4
:101C90006146DB170193009353401E00019B4B40AC
:101CA0001F0000980199361A8F4163460A996B60AC
:101CB0000B9BAC6029612A606B6100F085F880198C
:101CC0007941002902DA0120314940422269EFF3CB
:101CD000108972B61368002BFCD0BFF35F8F02230C
:101CE000E65E636972009219D2009B1822699046E1
:101CF000002E42DB1A886280BFF35F8F00224746C6
:101D00003A6089F31088234A9860D9601A615A882A
:101D10005D6101325204520C111C002A2BD088B292
:101D20003204024359802069EFF3108772B60168CC
:101D30000029FCD0BFF35F8FA1881980A68023699A
:101D4000BFF35F8F0021196087F310881248237852
:101D50008446013199400120E36863441960EA60D8
:101D600003B0C0BCB946B046F0BD00230126002731
:101D700001229C4699E70121D1E7BFF35F8F002341
:101D8000136089F31088012200205242E7E7C04621
:101D9000FFFFFF7FBD1400103C200000004870478B
:101DA0000040054010B5024A0248FFF7E3F810BDB5
:101DB000E4B50010105300200300416A0A00986A3D
:101DC000596A8A42FAD17047034B596A0A00986AE5
:101DD000596A9142FAD170470040054070B504003D
:101DE0000D00174A536A1900966A536A8B42FAD15A
:101DF0003000190024184D41AB4216D813D0104BB7
:101E00002A005B6A9D4203D90D494B6A9342FCD379
:101E1000934207D10A4A02E0516A994202D1916A7B
:101E2000A142F9D370BDA642E9D9054B5B6A1C00FB
:101E30005A1CEFD0012201246442E5175242E3E725
:101E400000400540244B70B598420BD843011B1A43
:101E5000224A9B001818916AC000936A5B1A984244
:101E6000FBD870BDFA2200239200002101F0C6FDCC
:101E700004000D00194A536A1900966A536A8B428E
:101E8000FAD13000190024184D41AB4218D9134B38
:101E90005B6A1C005A1C0AD0012301246442E51726
:101EA0005B420E494A6A9A42FCD39A42D9D10B4A04
:101EB00002E0516A9942D4D1916AA142F9D3D0E7A4
:101EC000AB4205D0054A2B00526A9542E9D8ECE7AF
:101ED000A642F7D9DBE7C0469BC42000004005407E
:101EE000064A536A9942FCD807D1044B02E05A6A69
:101EF000914202D19A6A9042F9D870470040054059
:101F0000F8B5DE464E4657464546E0B58B460500D9
:101F10000A991800160000F007FD0A9B6C001F02CA
:101F2000324B64199C46A4006444636881469F4216
:101F300000D967602B1FDBB29846012B30D9C02334
:101F400080229B01E31812011A60294BAD005959F8
:101F50009A4600291BD17301E026226853401E4097
:101F6000802342465B01E3181E60012A30D980239A
:101F700080229B01E31812011A6053464A466760AB
:101F80005A51F0BCBB46B246A946A046F8BD5869B6
:101F900000F0CAFC013043001B18033BFDD2DAE716
:101FA0005B46012BCBD1C02303229B01E3181A60AF
:101FB000023AA3681A42FCD07301E0262268AD0001
:101FC00053401E4080230A4A5B019246E3181E607C
:101FD0005A462168514003220A401A6001225B469A
:101FE0009A40A3681A42FCD0C1E7C0460080004076
:101FF00018530020F0B546464F46D646C0B51F00E0
:10200000344B44009C462418A4006444636888460A
:102010001600FF2B02D880235B006360031FDBB236
:102020009A46012B30D9C02380229B01E31812016C
:102030001A60294B85005959994600291BD1730113
:10204000E026226853401E40802352465B01E3187D
:102050001E60012A30D9802380229B01E3181201DF
:102060001A6080235B0063604B465F51E0BCBA4658
:10207000B146A846F0BD586900F056FC0130430057
:102080001B18033BFDD2DAE74346012BCBD1C0231B
:1020900003229B01E3181A60023AA3681A42FCD09B
:1020A0007301E0262268850053401E4080230A4ABF
:1020B0005B019146E3181E604246216851400322AD
:1020C0000A401A60012342469340A2681342FCD0A2
:1020D000C1E7C0460080004018530020014B80003B
:1020E000C058704718530020F0B54746CE4680B51B
:1020F0005B4B16005A680700884683B0FF2A02D857
:10210000802252005A600322564B554D1A6001231B
:10211000AC682342FCD0202229685140C0320A40DA
:1021200051490A602A684E4D5A40032313400B6000
:102130000223AC682342FCD080224C4B12011A606F
:1021400080235B006B604A4C99464A4B3A006361BE
:10215000012143464848009600F0D8F9414638002E
:10216000714300F0E1FB454B05005A68FF2A01D896
:102170004A465A608022424B12011A6021690029A6
:1021800007D0606900F0D0FB013043001B18033B0F
:10219000FDD2E023394A3B4811680B40036002231B
:1021A0001168594001330B400421036093681942C0
:1021B000FCD08021344B090119608021334B490048
:1021C00051602361264B5A68FF2A00D859600322C8
:1021D0000121244B1A60224A93681942FCD0E02363
:1021E0001068034020480360126803234A4002211C
:1021F00013401B4A036093681942FCD080211B4B9B
:10220000090119608021224B4900516065615A68BB
:10221000FF2A00D8596080221E4B12011A60A16962
:10222000002907D0606900F07FFB013043001B18D4
:10223000033BFDD2402316490A685A40A03313409D
:10224000154A13608022154B12011A6080235B002F
:102250004B60084BA36103B0C0BCB946B046F0BDAB
:102260003C8000403CB000403C9000403CA000401E
:1022700018530020006CDC020080024030800040D7
:1022800030B000403090004030A00040001BB7004C
:102290004880004048B000404890004048A00040BE
:1022A000F0B54E46DE4657464546E0B51600924A22
:1022B00085B09346A022520091465A4603969B460B
:1022C000060001920291019B8C4A93420DD9012391
:1022D0005B429C468A4AE1449446019B63440193D5
:1022E0004B460F2BEFD100208EE01F00854B0724BB
:1022F0009C4667442300634338001900984600F069
:1023000013FBA246651E864250D06C433800210064
:1023100000F00AFB864259D06B1E9846012D00D171
:10232000D3E05346E41A2100380000F0FDFA86425B
:1023300058D0AB1E9846022D00D1B9E05346E41A9E
:102340002100380000F0F0FA864264D0EB1E984677
:10235000032D66D05346E41A2100380000F0E4FA59
:10236000864200D172E02B1F9846042D00D174E004
:102370005346E41A2100380000F0D6FA864200D114
:102380007DE0052D00D17FE053463800E11A00F0D2
:10239000CBFA06248642ADD10029ABD1C8465B46B4
:1023A000D14601250298039E26E0A8464146380002
:1023B00000F0BAFA002900D197E0651EA2466C43EE
:1023C0003800210000F0B0FA8642A5D12100380083
:1023D00000F0AAFA00299FD1C8465B46D146029870
:1023E000039E09E00029A4D15246C2465B46C84676
:1023F000554691460298039E4246434951434A46F8
:102400000160012032601D6005B0F0BCBB46B246E1
:10241000A946A046F0BD0029E6D0EB1E9846032D44
:1024200098D1092138000324092500F07DFA86425D
:10243000BBD00323062138009A460334073D00F041
:1024400073FA8642C2D0012398466AE70029CBD0AE
:102450002B1F9846042D00D08AE704240C353B0935
:102460009E42A2D004230C2138009A4608340D3D28
:1024700000F05AFA8642A9D00223984651E7002973
:10248000B2D0052D00D07FE719213800192500F0C2
:102490004BFA864226D01421380000F045FA052375
:1024A00014249A4686421BD0023B9846153D38E7D5
:1024B000042302249846BB089E4200D176E7A24638
:1024C000013D7B089E4200D180E7B74200D0FEE686
:1024D0000122C8465B46914601250298039E8BE780
:1024E000042573E7A846052460E7C8465B46A14675
:1024F00025000298039E7FE750262F0050F80C001D
:1025000020D1FFFFB0710B00001BB700F8B504002D
:1025100021481E0017000D0000F006FA01003800E7
:1025200000F002FA069B36041B031E432368002BAF
:1025300020DB1A4B1A49E3185A1E9341802292015C
:1025400094465B421B0B174A1B0363441360164AF5
:1025500013601F000A689743FBD1144B2560E218F3
:102560002123A06013602368002BFCDA0823E660B7
:102570001360F8BD3F2322681340AB42D9D1A36852
:102580001B051B0D8342D4D1EE22E368D202134017
:10259000B342CED1EDE7C046001BB7000040FDBFFF
:1025A00008C0004000E0004000F00040043000009F
:1025B0008023024A9B000B43D36270470080054092
:1025C000002310B50100988A1B8B984710BDC046A8
:1025D000162310B50100188802331B88984710BDD8
:1025E000F8B54746CE4680B50F1E18D0142399463D
:1025F000043304000025012698464B4618884346BC
:1026000021681B88984701C4431E98410135064044
:10261000AF42F2D13000C0BCB946B046F8BD012689
:10262000F8E7C046AA23064A1B0113608D235B000E
:10263000D3600449044B19605368002BFCDA7047DF
:102640000040024000B0FA00006002407047C046FF
:1026500010B50148FEF760FC08B6001070B5074DD4
:10266000074EB54209D20024013E761BB60808CDBC
:10267000984723000134B342F9D170BD58B400101B
:1026800094B4001070B5074D074EB54209D200242E
:10269000013E761BB60808CD984723000134B342AB
:1026A000F9D170BD8CB4001094B40010054B064AEB
:1026B00006491A60064A074B1A6010000B689843D7
:1026C000FBD1704700E00040BFCDFBFE08C00040DA
:1026D000FE7F3C0000F00040044BDB6C002B03D17C
:1026E0008022034BD2021A607047C046000011508E
:1026F0004C201150044A054B1A60054A1368DB014F
:102700008033FBD17047C046FFFFFF0100F000405F
:1027100008C000404022034B9A675A671A67DA667E
:102720007047C04600F0014010B5FEF7A7FC10BD91
:10273000F8B52749274C284D641AA6103200302ED0
:1027400000D930222800920001F046FABC2C3BD878
:1027500030202F232C196407204A801BE40F9B1B79
:10276000052B16D93700002C02D0B300771CEA5095
:10277000001B33199B004108EB18C900C9181A60E7
:102780005A6008339942FAD1012303421CD098437E
:10279000C619B300EA50731C2F2E15D09B00EA50C7
:1027A000B31C2E2E10D09B00EA50F31C2D2E0BD004
:1027B0009B00EA50331D2C2E06D09B00EA50731D5F
:1027C0002B2E01D09B00EA50054B9D60F8BDC04602
:1027D00000010010C001001000000020C101001025
:1027E00000ED00E0002310B5294C82B0A367FFF78D
:1027F00019FF0122274B1A60636C012BFCD10322C5
:10280000254B1A60224A936B012BFCD101330093B4
:102810000121224A22480433FFF778FE05230121D3
:102820000093204A2048FFF771FE00220221042075
:102830001E4BFFF7DFFB0022012105201C4BFFF799
:10284000D9FB0022002107201A4BFFF7D3FB0022FF
:1028500000210820174BFFF7CDFB8023DB000093FE
:10286000002200210920134BFFF74AFB0022104BE6
:1028700000210620FFF7BEFB0420FFF72FFC0E49C6
:1028800000F052F801000020FFF792FE02B010BDE8
:10289000008000403CB0004030B00040002F68593C
:1028A00000800240008C864700C00240001BB70039
:1028B00040597307006CDC0240420F0001480421BC
:1028C000014B1847403C0020E1250010014B9B685C
:1028D00018470000403C0020124A936F9B0815D215
:1028E0009066D166002905D0FFE7FFE7FFE7516F4B
:1028F000106F704704B580210906C21751400028A7
:1029000000D0C84308F040FD002104BDF0B5146EAE
:10291000556E576F166FFFF7E3FF146655665767DE
:102920001667F0BD000000D0114A936F9B0813D2C8
:1029300010665166002905D0FFE7FFE7FFE7516FFA
:10294000106F704704B5002801D00020C04308F084
:102950001BFD002104BDC046F0B5146E556E576FC7
:10296000166FFFF7E5FF1466556657671667F0BDEB
:10297000000000D094464A4A926F9208624601D203
:1029800028E0C046F0B5464E346E756E776F366FF0
:1029900000F020F89446424A146655665767166759
:1029A0006246F0BD94463E4A926F9208624601D25A
:1029B00054E0C046F0B53A4E346E756E776F366FA0
:1029C00000F04CF89446364A146655665767166709
:1029D0006246F0BD002B24DB11D000293EDA00B5A1
:1029E000C943404200D1013100F038F8C9434042A8
:1029F00000D10131DB43524200D1013300BD002A36
:102A0000EBD1002801D1002905D00020C90FC9074A
:102A100001D1C043410800B508F09EFC002200230C
:102A200000BD00B500290ADBDB43524200D101336F
:102A300000F014F8C943404200D1013100BDC94340
:102A4000404200D10131DB43524200D1013300F05A
:102A500005F8DB43524200D1013300BD002923D1E8
:102A6000002B18D1002A0CD0BC460D4F38667A6670
:102A700000210023FFE7FFE7FFE77A6F386F674623
:102A80007047002801D00748010000B508F064FC39
:102A90000022002300BD02000B000020002170472F
:102AA000000000D0FFFFFFFF002B00D0BFE0130CA1
:102AB00028D1002AE7D080B4114F39667A66FFE743
:102AC000FFE730B4040C7B6F396F1B0423433B6674
:102AD0007A66FFE7FFE7FFE7C04684B27B6F3D6F92
:102AE0001B0423433B667A66FFE7FFE7C0460023EB
:102AF0002C042D0C7A6F386F00196941B0BC7047F7
:102B0000000000D0F0B594460025140E01D1120249
:102B10000835140F01D112010435940F01D1920030
:102B20000235D40F01D152000135D40B0134254FA9
:102B30007C66254C3C660E0C93B2FFE7FFE7FFE78F
:102B40003C6F6643360C7703BE467343DF0B5B0472
:102B5000C01AB941130C7343DB18C91ACE08664377
:102B6000360CB64493B273431F0F1B01C01AB94110
:102B7000130C73431F0B1B05C01AB941860D8F023E
:102B80003E436643360C092D24DB520A7243801AF9
:102B90007703460A6643360C16235B1BDE40DF4094
:102BA000BF1964466643821B704604350633010034
:102BB000D940A840C01900D30131A24206D2002357
:102BC000F0BD0000000000D0FFFFFFFF121B01302E
:102BD000F3D3F1E709277F1BFE406446A2B272439C
:102BE000801A00D20139220C7243130C1204821A8B
:102BF00099410B007046043513370100F940A84095
:102C0000801900D30131002B02D1A2420AD2F0BDBB
:102C1000013000D30131121BFAD2013BF8D1A2429C
:102C200000D2F0BD013000D30131121BF7E7F0B53F
:102C30001C0C00D080E00CB400251C0A04D11B023F
:102C4000160E3343120208351C0B04D11B01160F5C
:102C50003343120104359C0B04D19B00960F334380
:102C600092000235DC0B02D192185B4101351C0049
:102C7000971864410134464F7C66464C3C660E0C06
:102C8000FFE7FFE7FFE7C0463C6F6643360C77037C
:102C9000BE4697B27743C01B00D20139C01B00D299
:102CA00001399FB27743C91BC91B170C77437E04B8
:102CB000FF0B801BB941CE086643360C0C2D33DB6D
:102CC000B644120B1F053A431B0B97B27743C01B48
:102CD00000D201399FB27743C91B170C77433E04DA
:102CE0003F0C801BB941860D8F023E436643292766
:102CF0007F1BFE400C3D7746AF40BF1930BCA2B2EF
:102D0000ABB272437343801A9941220C7243130C85
:102D10001204801A994102000B000137001BA941DF
:102D2000F9D2781E0021F0BD0C277F1BFE407746AC
:102D30007F0BAF40FF19E0E700245D1C07D0144F64
:102D40007D663966FFE7FFE7FFE7FFE73C6F95B277
:102D50009EB265436643401BB141150C1E0C654392
:102D6000664336042F0C3E432D04401BB14199426B
:102D700004D202000B0020000021F0BD01D19042DE
:102D8000F7D3801A994101349942F2D3F6E7000053
:102D9000000000D0FFFFFFFF48404140484018B40A
:102DA000134B5B68019308BD18B4114B1B6801936A
:102DB00008BD94460F4A926F920805D2624618B435
:102DC0000B4BDB68019308BD0A4AF0B5146E556ED3
:102DD000576F166F6246FFF7F2FF064A1466556694
:102DE00057671667F0BD18B4014B9B68019308BD87
:102DF00000440020000000D0FFB550404240504049
:102E000059404B40594000E0FFB5154F4C00640D50
:102E100003D0BC4204D10C0314D80020090D0905CD
:102E20005C00640D03D0BC4204D11C030AD800220C
:102E30001B0D1B0501264B4009D44B4003D58B428B
:102E400000D18242FFBD9942FCD19042FFBD0B43AD
:102E5000DB1803431343F5D0C9434918FFBD0000F5
:102E6000FF07000000B5FFF7CFFF01D0002000BD35
:102E7000012000BD00B5FFF7C7FF804100BDC0467F
:102E800000B5FFF7C1FF01D9002000BD012000BD42
:102E900000B5FFF7B1FF01D9002000BD012000BD42
:102EA00000B5FFF7A9FF804100BD012040054A00A1
:102EB000121804D85A00121801D8002070470120B7
:102EC000704700000021002805D17047C117484015
:102ED000401AFAD0C90713B5064B1B6898470CBCBB
:102EE000441CA2401005120B0349091B0905194394
:102EF000114310BDA47100201F04000010B54C0048
:102F0000620D8023D218DB00D21A5B057E2A10DD09
:102F10009E3A13DACC170903490819435242D140AB
:102F2000640001341532202A05DAD040084360439A
:102F300010BD002010BD0846604310BDC80FC0186A
:102F4000013810BD18B4024B5B6A019308BD000044
:102F50000044002018B4024BDB6C019308BD000054
:102F60000044002018B4024B1B6D019308BD000003
:102F70000044002010B50148FDF7CEFF14B6001044
:102F8000132370B51D78012D19D014DD1D48FFF7EE
:102F90001FFB06001C48FFF71BFB1C4C8022310066
:102FA000200000F019FE022D06D01948FFF708FB9B
:102FB000184B186070BD154C174BA364F5E7174B01
:102FC000124C23606360A360E36023616361A361CB
:102FD000E36123626362A362E36223636363A363C7
:102FE000E36323646364A364E36423656365A365A7
:102FF000E36523666366A366E36623676367A36787
:10300000E367D9E753440000534600000044002022
:103010004C330000A4710020D1390010752F00102E
:10302000F0B54646D6464F461D00984BC0B598466B
:103030004E00760D140088B0B044002E52D0944B50
:103040009E424FD00022934FBF1B3B058018594131
:10305000FFF788FF904A914BFFF7ABFE0022904BA1
:1030600000900191FFF71CFF00280AD000980199F9
:103070008C4B0022FFF793FE8B4B009001919846FA
:10308000B0444346002B22D0002220002900874B69
:10309000FFF7FEFE00280DD1002220002900844BFE
:1030A000FFF7EEFE00283FD043460024002B05DB4F
:1030B000002504E043460024002BF9DB7D4D200071
:1030C000290008B0E0BCBA46B146A846F0BD2200CF
:1030D000009801992B00FFF786FE00F087FA0400A4
:1030E0000D00ECE7FFF73EFF6B4A6C4BFFF761FE0C
:1030F00000226B4B00900191FFF7D2FE0028C3D055
:10310000009801990022674BFFF749FE664B00903B
:1031100001919846002220002900644BB044FFF73B
:10312000B7FE0028B8D0C5E72000290000F010FA4B
:103130000B00020006000F0020002900FFF72FFE01
:103140001A220490059100F0DDF900F001FA030065
:103150000C00029303944B005B0D0DD04C4A93423C
:103160000AD000221A2B00DC87E002980399524B08
:1031700012184B410292039339003000FFF7BEFE54
:1031800082464046FFF7A2FE029A039B06000F000C
:10319000FFF729FE04000D0000F0DAF902000B0031
:1031A0000690079120002900FFF7F9FD029A039B82
:1031B00004000D0004980599FFF7F1FD32003B0073
:1031C000FFF711FE22002B00FFF7EEFD0600504630
:1031D0000F00FFF77BFE009A019BFFF704FE04003F
:1031E0000D0000F0B5F90A000100130002910392EE
:1031F000020029002000FFF7D2FD32003B00FFF75C
:10320000D3FD009A019B04000D0004980599FFF777
:10321000EAFD2B002200FFF7C7FD00F0E7F94B00A5
:103220005B0D04000D0006000F009946002B00D135
:1032300045E7174B994500D141E706980799524653
:10324000434653439A46FFF759FE82440298039936
:10325000FFF754FE4B465044C318002B09DD174AB4
:1032600093420DDDEB0F134ADB071A4300241500D0
:1032700025E7EB0F0024DD0721E7C90FCB0779E72E
:1032800000240505A4197D4119E7C04601FCFFFF94
:10329000FF070000FF030000EF39FAFE422EE63F71
:1032A0000000E03F0000F03F02FCFFFF0000B040E4
:1032B0000000B0C00000F07F000060FEFE070000CC
:1032C000F0B54646D6464F460400C0B50D00160080
:1032D000012A56D0D70FBF187F10012F47D00323E4
:1032E000D21713409B199B109846012B35D007230A
:1032F00013409B19DB109946012B27D00F23134055
:103300009B191B119A46012B15D03300203B1F2B14
:1033100006D90022FFF7D4FF02000B00FFF763FD80
:103320000B000200FFF75FFD5346DB0703D52200C9
:103330002B00FFF758FD0B000200FFF754FD4B4632
:10334000DB0703D522002B00FFF74DFD0B00020029
:10335000FFF749FD4346DB0718D402000B00FFF7D7
:1033600042FDFF0703D522002B00FFF73CFD0200C2
:103370000B00FFF738FDF60703D522002B00FFF7FF
:1033800032FDE0BCBA46B146A846F0BD22002B0093
:10339000FFF729FDE1E7C046F0B587B004000D0056
:1033A000029003910492059300292CDA5B004E4AA7
:1033B0005B0D9B181ED43422D31A1BD4180020385E
:1033C0004AD4353A84468240049E059F01214942F1
:1033D00099403000884301003800904302000A43BE
:1033E00008D1342B4CD06246002A3FDB3B00D3404F
:1033F000DB0745D480231B06EB1800940193009C47
:10340000019D0294039504980599FFF777FD2B0D14
:1034100006000200002B3ED034498B423BD02903EA
:10342000090B214337D1324A904256DB80221201E8
:10343000964250DA2C4A944663445E432D4BF3186F
:10344000002B4CDD2C4A002093424BDC00222B4BFE
:103450003105801859411CE0012220215242844646
:103460001000C91AC8409A400243ADE7300001007D
:1034700020223E00D940D21A96400B003343B7E7D2
:103480008026049A059B36062000A919FFF784FFC1
:10349000891907B0F0BD002E13D033002033402B24
:1034A00012D8002E08DA029A039B00201349FFF776
:1034B00080FC02900391724202980399FFF700FF8B
:1034C000E7E700200D49E4E7049A059B0298039979
:1034D000FFF7A6FDDDE7054EACE71600A6E70020E6
:1034E0000021D6E70649D4E701FCFFFFFF070000F3
:1034F00000F8FFFFFF030000FE0700000000F03FA0
:103500000000F07F4B0070B55B0D04000D00002B38
:103510000ED00C4EB3420BD0D318002B09DD0A4954
:103520008B420ADD094AEB0FDB071A43002011002A
:1035300070BDCB0F0020D907FAE700201105001954
:103540006941F5E7FF070000FE0700000000F07F7B
:10355000244A4B0094465B0D6344F0B504000D0013
:103560005A1C21DB5A1C35D0342B1CDA3326F61AB0
:103570003700203F1CD40121B9400B000121B1408C
:103580000A0012196B41002F1EDB0224BC402100EF
:103590000224B44020001600002544428D412640FC
:1035A0002B4030001900F0BDCB0F0020D907FAE7FF
:1035B00020210120891BC8400121B14003000A00DD
:1035C00012196B41002FE0DA20240225A41BE540EC
:1035D0002900DDE7CB0F044ADB071A430020110066
:1035E000E1E7C04601FCFFFF0000F03F264B70B54D
:1035F0000A0D04000D009A423AD00022234BFFF737
:103600003FFC002834D1002220002900204BFFF786
:103610003FFC002802D000201E4970BD2000290078
:10362000FFF796FFFFF76AFC0600FFF74FFC02006A
:103630000B0020002900FFF7B2FB174B174AFFF7DA
:10364000D2FBFFF787FC4B0004000D005B0DE4D0BC
:10365000134A9342E1D0F318002B0CDD114A934238
:103660000DDDCB0F0B4ADB071A4300201100D4E716
:1036700000200021D1E7CB0F0020D907CDE70020A3
:10368000310500196941C8E7FF0F00000000B0C014
:103690000000B0400000F07F422EE63FEF39FAFE16
:1036A000FF070000FE070000F0B5D6464F4646462D
:1036B000C0B516001F000022B74B04000D00FFF735
:1036C000D1FB22002B0000283AD13B0D98465B0528
:1036D0005A0D91460022002B3AD020002900AF4B12
:1036E000FFF7C0FB002835D0AD4B99452FD098454A
:1036F0006BD0AC4B98455CD04B46AB4A9A1864D41F
:10370000A64934239B1A9C46002B11DD1800203853
:1037100000D5F3E00122524282400120634640423C
:1037200098403300834338009043034300D0F9E0CE
:1037300032003B0020002900FFF72EFE02000B00A4
:1037400010001900E0BCBA46B146A846F0BD002200
:10375000914BF5E72A0D53052900580D002B2BD16D
:10376000914B4B44002F33DB002B22DB3421C91A51
:103770001FD40800203854D401235B428446834080
:10378000012252428A4030009043020038009843A0
:10379000030013430DD122002B003429D0D06346FF
:1037A000002B00DA9CE03E00DE4022002B00F607F2
:1037B000C6D400220023C3E7794B9A469A4244D1EB
:1037C0000022002FF6DB794BBAE70022774BB7E7F0
:1037D000774A9145F9DD3422D31AF6D418002038FF
:1037E00029D4353A8446824001214942994030002B
:1037F000884301003800904302000A43E5D1342B8E
:1038000006D06246002A72DB3E00D640F607DCD5C1
:10381000664AEB0FDB071A43110000200B00020081
:103820008EE7012320225B4284461800521AD040C2
:103830008B400343A4E7012220215242844610001A
:10384000C91AC8409A400243CEE7564B9A4260D10B
:10385000554B4B44002F1FDB002BB6DB3422D31A11
:10386000B3D41800203872D4353A8240012149423D
:10387000994034008C4321003C00944322000A43C9
:10388000A3D1342B7AD0002871DB3E00C640002241
:10389000F60798D5474B53E7454A914589DD3422D1
:1038A000D31A86D41800203848D4353A82400121F2
:1038B0004942994034008C4321003C00944322004B
:1038C0000A4300D075E7342B5BD0002848DB3E006C
:1038D000C6400022F60700D46CE780231B062FE7C2
:1038E00020233A005B1A9A40CE4016435DE720221F
:1038F0003900D21A9140DE400E4387E70122202092
:103900005242C01A1300C340180063469A40024353
:1039100003E7D04539D098454ED04B46224A9A18F5
:1039200000D4EEE6002900DA4FE732003B00200029
:103930002900FFF775FB02000B0001E7012220219F
:1039400052421400C91ACC409A402243AFE70122E8
:10395000202152421400C91ACC409A40224385E7E4
:1039600020223900D21A9140DE400E43B1E72022D6
:103970003900D21A9140DE400E4388E700220D4BF9
:10398000DEE6802300221B06DAE6094B002298427D
:1039900000DD18E70023D3E60000F03F0000F0BF91
:1039A000FF070000FF0F000001FCFFFF0000F07F99
:1039B000FE0300000000F0FF034B0022984200DDF0
:1039C000F8E6024BBCE6C046FE0300000000F07FB4
:1039D00007B5604601880A0A0230DF2AFAD1C9B267
:1039E000820804D3028840880004104300E0006885
:1039F000014A5050039007BD004400205143434307
:103A0000C9188C46110C83B24B4310B4040C6143AB
:103A100092B280B2504362431C041B0C001910BCCC
:103A200059411304120CC018514161447047000001
:103A30004840414048400E4B5B6818470C4B1B68A0
:103A400018470C4A936F9B0802D2094BDB68184752
:103A5000F0B5146E556E576F166FFFF7F6FF054AF7
:103A60001466556657671667F0BD014B9B6818478B
:103A7000A8710020000000D0491A002808D108468B
:103A800070470000C10FC90700D54042002817D079
:103A9000F44603B40B4B1B68984706BC81409E3824
:103AA0004042803107D20B0607D04900490AC005C1
:103AB0001043084360470130F8E7490A8902F5E7F7
:103AC00070470000A4710020014B5B6A184700009A
:103AD000A871002010B50148FDF71EFACCB6001001
:103AE000132310B510481C78FEF772FD0100012C5D
:103AF0000AD003DD80220D4800F06EF80C48FEF776
:103B00005FFD0C4B186010BD084C5422200000F0E3
:103B100063F82200084980322368002B00D121601D
:103B200004349442F8D1E9E753460000A87100201C
:103B30004C330000A4710020D53A001070B5040089
:103B40000A4E300007F070FC200006F04FFF050021
:103B5000300007F0F9FB002D05D0054B2C199C42D5
:103B600001D8280070BD0348FDF7D6F900420020B7
:103B7000000004202CB60010F8B506000C000C4F15
:103B8000380007F051FC2100300006F0CFFE0500A0
:103B9000380007F0D9FB7443002D05D0054B2C19D4
:103BA0009C4201D82800F8BD0348FDF7B5F9C0468E
:103BB00000420020000004202CB60010014804211F
:103BC000014B1847503C0020E1250010014B1B68B9
:103BD00018470000503C0020014B5B68184700006C
:103BE000503C00209A4200D2885470477047C0462B
:103BF000F8B55746DE464E464546E0B599460A9B1F
:103C000007009A460D9B884693460B9C9B073BD129
:103C10000C9B9C423DD21E1B0B9415000C005E4475
:103C20002A004B46013521002020B847B542F7D184
:103C3000A0460B9C002C20D0454636195346321B1B
:103C4000013C185D29004B46B847002CF6D12B00EB
:103C5000350098460D9B9B070FD55B46EC1A0C9BD5
:103C6000A3420AD9464698462A004B4631002020F6
:103C70000134B84701354445F6D32800F0BCBB46B3
:103C8000B246A946A046F8BD16001500002CD3D1B7
:103C9000E0E716001500002CCED1EEE7F0B5454662
:103CA000DE4657464E46E0B585B09C4610AB1B78C5
:103CB000149F934698460F9C129E139DBB074CD4AD
:103CC000002D42D1B44248D201233B4099460E9B7D
:103CD000013B9A46302304E0524601341355A64274
:103CE00001D9202CF8D14B46002B00D183E00E9B4C
:103CF000013B99463023A54205D82EE04A460134BF
:103D00001355AC4229D0202CF8D1FB060CD57B05ED
:103D100054D4A64263D0A54261D0119B102B50D041
:103D2000022B57D0202C32D1202301930E9B5A46D0
:103D30000093039763460295FFF75AFF05B0F0BC66
:103D4000BB46B246A946A046F0BD01233B4099467A
:103D500001233B422AD1B442B9D3FB061CD57B05D3
:103D6000DBD4002CD5D1119B102B5BD0119B022BE7
:103D70006BD0302301240E9A13704346002B10D1D0
:103D80007B073ED52B260E9A631C1655CDE72300E4
:103D9000013430260E9AD654202CC5D04346002B31
:103DA000EED02D260E9A631C1655BEE74346002B17
:103DB0002FD0013DB44200D289E798E7119B102B28
:103DC000B2D1BB0637D5202CAED058230E9A13554E
:103DD0000134A7E7202CA7D02300013407E0631E9D
:103DE000012CC0D0119A102A31D0022AD1D16226DA
:103DF0000E9AD65496E7FB06CED57B0500D488E70D
:103E00008BE723003E0790D520260E9A01331655E6
:103E10008BE70C233B405A1E9341ED1AB44200D26B
:103E200055E764E7BB060ED478230E9A022413707C
:103E300030235370A1E7202C00D175E778230E9A28
:103E4000135501346EE75823EFE76033EDE70E9A20
:103E5000A61E91464E44BA0602D55822327098E703
:103E60007822327095E7C04610B5002800D110BD09
:103E700001F092FCFBE7C0460B0010B5002802D011
:103E800049681B68984710BDF0B55746DE464E4658
:103E90004546E0B595B083460F00924698461E9A77
:103EA0001F9B10001900209EFEF7FFFF002800D086
:103EB000EAE11E981F990122C54B5242FEF7DAFF34
:103EC000002800D014E11E981F990122C14B5242D4
:103ED000FEF7E6FF002800D0E9E01E981F990022B7
:103EE000BD4BFEF7DDFF002800D0C8E01E981F99EB
:103EF0000022BA4BFEF7BEFF002800D0BFE01E989C
:103F00001F9900220023FEF7B5FF002800D0E4E04F
:103F100000230B93229B5B0500D40626002430234C
:103F200007E0172106AA013452181355013E202C30
:103F300001D0092EF5D81E981F99FEF7DFFFA84B78
:103F4000F2009B181A685B68050008920993FEF757
:103F5000BDFF02000B001E981F99FEF720FF089A74
:103F6000099BFEF740FF06900791FEF7EBFF8146A5
:103F7000FEF7A8FF02000B0006980799FEF70FFF57
:103F80000022984B06900791FEF78AFF002800D187
:103F90000DE101239C46E1444846FEF793FF0200F1
:103FA0000B0008980999FEF76BFF002802D0002348
:103FB00099460135002E00D1D9E006954D46B94607
:103FC00014E006AA944617230A216344280001340A
:103FD0001F19FEF7A9FC3031397028000A21013E73
:103FE000FEF7A2FC092D00D817E10500202CE8D12E
:103FF0004F46069D20240CAE06AA17239446634420
:1040000099465B46B34606930FE04B4628000A21CB
:104010000134E618FEF760FC3031280031700A21C7
:10402000FEF75AFC051E00D1E4E0202CEDD1069BE2
:104030005E469B460323229A1340012B18D1219BF5
:10404000002B15D00B9B002B00D1FDE0219B013BE9
:104050002193202B0CD93023219A07E0172006A9A1
:10406000013409180B55944200D3CCE0202CF5D133
:10407000229B01940393219B0096029322E0229BB2
:1040800052460493219B3900039358461E9B1F9C64
:10409000029600930194434600F04AF90400200080
:1040A00015B0F0BCBB46B246A946A046F0BD229B67
:1040B0005B070FD403224C4B229901920391219963
:1040C000009302914346524639005846FFF790FD4F
:1040D0000400E4E70422454BEEE71E9A1F9B0020F4
:1040E0000021FEF75CFE01231E901F910B9311E748
:1040F000229B54469B0711D1219B042B0ED9219B57
:1041000055469C465E46043C64442A0043460135BD
:1041100039002020B047A542F7D1B346344D2600E0
:104120002B1F99465B46A3461C003200E8784346A5
:104130003900013DA04701364D45F6D123005C46CC
:104140009B46229B04349B07A9D55346219AE31A28
:104150009A42A4D95E461500220043463900202029
:10416000B04753460134E31A9D42F5D897E728003B
:10417000FEF7ACFE02000B001E981F99FEF70FFE23
:104180000022184B06900791FEF774FE0CAE002833
:1041900000D031E7069807990022124BFEF780FE07
:1041A000002800D028E7012301359D4324E70022A1
:1041B000069807990B4BFEF75DFE002800D0F9E644
:1041C0004B46002B5CD101239C46E144F2E6C046FD
:1041D000FFFFEFFFFFFFEF7F65CDCD4165CDCDC187
:1041E00008BC00100000E03F90B6001088B6001038
:1041F00098B60010069B5E469B460323229A134006
:10420000012B00D181E0202C00D131E70B9B002B4A
:1042100027D02D23335501342AE74F46069D202C05
:1042200000D1E7E63022331907E0172006A9013450
:1042300009180A55202C00D1DCE6A342F5D12E2224
:104240000CAE0134F254D7E60C23229A134257D015
:10425000219B013B2193A34200D9FCE6202C00D1F5
:1042600006E7229B5B0703D52B2333550134FFE67A
:10427000229B1B0700D4FBE6202333550134F7E6CD
:10428000DB0700D496E69EE7229B55469B0711D19B
:10429000219B032B0ED9219B54469C465E46033D31
:1042A000654422004346013439002020B047AC4227
:1042B000F7D1B346B9465F461C4EEC1C2A00B078D5
:1042C000434649460135B847013EAC42F6D1229BF0
:1042D000BB464F469B0700D4E1E65346219AE31ABA
:1042E0009A4200D8DBE65E461500220043463900BC
:1042F0002020B04753460134E31AAB42F5D3CEE653
:10430000219BA34200D9A6E6B2E6219B002B00D157
:1043100079E70B9B002B97D0219B013B21939C427B
:1043200000D298E6202C00D073E7A1E694B60010E6
:10433000F0B5DE4657464E464546E0B599B0814653
:104340008B4692469846229A239B10001900FEF74E
:10435000ACFD002800D0CAE0229823990122824BAC
:104360005242FEF79DFD002800D0C0E0229823991C
:1043700001227E4B5242FEF77DFD002800D0B6E0C0
:104380002298239900220023FEF774FD002800D014
:10439000C9E1229B239C08930994089809998023DA
:1043A000269ADB001A400D928022269C12011440AE
:1043B00022000B94269C07000E001C4200D0ADE0AA
:1043C0000B00034300D0D5E0002A00D00AE222000F
:1043D00006332493022313400C930223134200D08C
:1043E00002E2259B042B00D20FE2043B0B93002337
:1043F00004250A930022229823990023FEF73AFD10
:10440000002800D003E25A4B269A134004930B9BDA
:104410000393249B0293089B099C009301945946A3
:10442000434652464846FFF72FFD02002020269BB8
:104430001F27034059424B415B421840531C0893CD
:10444000594643464530C8470A9AD317D4185C40AA
:10445000D30F0A936B1E0B9308AB9C460025674451
:1044600001E0202D0FD020000A21FEF75DFA013572
:104470007E193031317020000A21FEF755FA2600EE
:104480000400092EEDD8052306930B9B594605938E
:10449000002304930A3303930A9B4846029310AB0C
:1044A0000093089A43460195FFF7F8FB0C9B002BFD
:1044B0002DD05346C41A259BA34228D94D465F46AA
:1044C00081461E00534639001A1920204346013404
:1044D000A847A642F6D8534648462599C21A013243
:1044E0000023914200D386E1013018180FE0269B8B
:1044F0000493259B0393249B0293229B239C00936C
:1045000001944346524659464846FFF7BDFC19B050
:10451000F0BCBB46B246A946A046F0BD01432BD134
:104520000B9B2200002B00D154E700230A93249B0D
:104530000A9A0024934200DD85E122982399002203
:104540000023FEF797FC002800D035E1269B084A9F
:1045500002941A408023DB0013430493259B0393AA
:10456000089B099CCBE7C046FFFFEF7FFFFFEFFFF3
:10457000FFF7FFFF06232493B44B70009C46400DC9
:104580006044FEF7A3FCB24AB24BFEF72CFCB24AE1
:10459000B24BFEF709FC3603B14B360B3343040034
:1045A0000D00380019000022AE4BFEF7F8FBAE4AB2
:1045B000AE4BFEF718FC02000B0020002900FEF7AE
:1045C000F3FBFEF79BFC0A90FEF780FCA84AA94B80
:1045D00004000D00FEF707FC0022A74BFEF7E4FBEA
:1045E000FEF78CFCA54A0600A54B20002900FEF72B
:1045F000FAFB040030000D000C96FEF767FCA14AA0
:10460000A14BFEF7F0FB02000B0020002900FEF793
:10461000C6FB02000B0006000F00FEF7E4FB3200B1
:1046200004000D003B0030003900FEF7BDFB002206
:104630000E900F91954B20002900FEF7BAFB002247
:10464000934BFEF7B1FB02000B0020002900FEF7A0
:10465000B0FB00228F4BFEF7A7FB02000B002000EF
:104660002900FEF7A6FB0D008021040032003B006C
:104670000020C905FEF793FB02000B002000290073
:10468000FEF792FB02000B000E980F99FEF791FBCC
:104690000022734BFEF788FB7F4B0C9C9C466444C6
:1046A00000222305FEF79FFB06000F0002000B000F
:1046B00008980999FEF7DEFB00280AD00A9B300013
:1046C000013B39000A930022714BFEF772FB060092
:1046D0000F000A9A330063323900C62A12D8022228
:1046E0002698042510400B9A0C90002A25D1259B72
:1046F000042B05D9002800D0A1E0259B043B0B9397
:10470000042541E00222269810400B9A0C90002AC2
:1047100012D1259B052B76D9002872D1259B052522
:10472000053B0B9334E0802212069446229B0893AB
:10473000239B6344099330E605250B4300D1F6E63D
:1047400008980999554A564BFEF7A2FB002808D055
:10475000089809990022534BFEF78CFB002800D0E3
:10476000E5E6249B002B1CD00D9B002B19D0249B2D
:10477000013B2493259BAB4204D90C9B002B5AD0C0
:1047800002230C9300230B930A9B002B00D131E6EC
:104790000898099932003B00FEF70BFB089009913D
:1047A00028E6259BAB42EDD90C9B002B43D0002380
:1047B0000B9302330C93E7E78020269B3A4A0006CE
:1047C0001A40802384460294089C099D2900DB003E
:1047D00013430493259B6144220003930B00009232
:1047E00001938EE60524A8E600230B930A93023377
:1047F00004250C93FEE553468C46013B63441B1A8B
:1048000072E602230C930525C2E70423EDE5802020
:10481000089E099F000639008446269A224B61446F
:10482000134004930B9B32000393249B02930B00D1
:1048300000920193F3E5259B5B1B0B93A4E70223F6
:1048400004250C93A0E79C1A013C76E601FCFFFFCF
:10485000FB799F501344D33FB3C8608B288AC63F6F
:104860000000F03F0000F83F61436F63A787D23F2D
:1048700071A379094F930A400000E03F1655B5BB7C
:10488000B16B0240EF39FAFE422EE63F00002C40A9
:104890000000244000001840FF0300002D431CEBE3
:1048A000E2361A3F80842E41FFF7FFFFF0B5DE4667
:1048B00057464E464546E0B5A5B01E002E9B924693
:1048C0000C93CD4ACD4B80468B461A60002900D10F
:1048D000EAE1002330789946002800D1ECE1C84B8A
:1048E0004C460B93C74B454657460E930AE0631C54
:1048F000984622003B005946A84744463078002895
:1049000000D187E001362528F1D108239A46043BDF
:104910009946023B9846013B00229C460D94307814
:10492000711C0300203BDBB2102B03D80B9C9B00B7
:10493000E3589F460300303B89460D9C092B3AD92A
:10494000002398462A2800D1C1E000239A462E2849
:104950004BD00300683BDBB2122B1ED80E999B0094
:10496000CB589F4663460E001A43D8E743460E00D5
:104970001A43D4E74B460E001A43D0E710230E002B
:104980001A43CCE753460E001A43C8E780235B0066
:104990001A43FF3B9C467078E1444E4667284FD847
:1049A0002428A4D90300253BDBB2422B9FD896498B
:1049B0009B00CB589F46002394461E0000E0013127
:1049C000B3009B195B001E180878303E0300303B93
:1049D000092BF4D90123624689469C460023B04640
:1049E0009A460E00E1442E28B3D13021802049425E
:1049F0008C46C000024370784B46844461460929C6
:104A000000D86CE12A2800D17AE101239C464E4669
:104A1000E1449EE7A146A846BA46CA4503D8012309
:104A20005B425344994653464A4659460020C04784
:104A3000200025B0F0BCBB46B246A946A046F0BD5A
:104A40000300693BDBB20D930F2B00D94FE7012127
:104A500099408C466D49894661464B4619400F91F5
:104A6000634649460B4200D028E10D9B0A2B3AD001
:104A7000072B00D03BE70C9B190008C98846002B88
:104A800000D14BE121200243914614A98C461F22FC
:104A90000F2162448C4651460D950C91A24615009B
:104AA0000F9902E020290CD0130064461C4020001E
:104AB0003730092C00D80738013168541A090F2BF8
:104AC000F0D80C9B54460D9D9A460F9133E10C9BF8
:104AD00002CB8846002947DB0C9301239C46707863
:104AE0004E46E14431E70C9B02CB14935346002B16
:104AF00000D138E19C4608780B000C908C440028CB
:104B000001D100F098FC89466146944603E05A784A
:104B10000133002A01D08B42F9D1494662465B1A23
:104B20000C900F93530500D520E10223180010408C
:104B30000D90134200D1CBE30D930B1BB1469A4667
:104B40005E460C9822003B003100A84753460134D2
:104B5000185D0028F6D1B3464E460D9B002B00D0C1
:104B6000C7E1149B0C93C9E60C9301239C4628389B
:104B700049420243884670784E46E144E5E6707843
:104B80006C2800D17FE180235B001A43FF3B9C46E9
:104B9000E14402E780239B001A4301239C4670787E
:104BA000E144FAE67078682800D173E180231A4363
:104BB0007F3B9C46E144F0E6672800D103E14728AB
:104BC00000D15AE1452800D15AE10492072142461A
:104BD0000C9B0392073352468B43190002920CC977
:104BE0002800009201930C9122003B005946FFF7E8
:104BF0009FFB040082E6C046AD48001074570020B9
:104C000068BA0010ACBA0010F8BA00104190000069
:104C1000462800D1DBE00492072142460C9B039218
:104C2000073352468B43190002920CC928000092A8
:104C300001930C9122003B005946FFF725F904002F
:104C40005CE6631C984622003B0059462520A84795
:104C5000444653E60C9B04330D93631C994692071C
:104C600000D422E10C9B2200187859463B00A8474B
:104C700043464444012B00D885E23300B8462E0059
:104C80005F4625004C4699462200434601343900D0
:104C90002020B047AC42F7D12C00BB463500474638
:104CA0004E460D9B0C9329E6DB4B3078984600234B
:104CB0009946002800D012E60024AEE66F2800D105
:104CC00088E000D80BE31023782800D1CFE09A4386
:104CD0000A239C4600230F930A330D9380E0564627
:104CE000B1008919490001330E181878303E0100CF
:104CF00030390929F4D9B2461E000133994628E615
:104D00000C9B023602CB8A46C9435046C91708405D
:104D100082460C933078731C99461AE610231000D3
:104D2000984311331843814680201300C00003408C
:104D3000024200D1A9E64B46069308230593534649
:104D4000049310230393002302930F9B22000193EB
:104D50001CAB009359463B002800FEF79FFF4346DB
:104D600004000C93CAE501235B42C3E60F9B534545
:104D700001D953460F930223180010400D9013429F
:104D800000D1B7E10D93D1460B1B9A463300A144E5
:104D90002E0022004D460C98B9465F469B4608E01F
:104DA0004B463900541CB0475346185D002877D055
:104DB00022009542F4D15B46BB464F46A9463500DA
:104DC0004C461E00C9E680231B011A43FDE6202342
:104DD0001A4320E708239C4600230F9308330D93C2
:104DE00080231100DB0019401A4200D116E10D2387
:104DF0009A431000802302009B001A40149218422C
:104E000000D0C2E1802302005B001A4091460C9A58
:104E100004320F92184200D0B7E2430600D59FE15A
:104E2000030600D419E30C9B1B880993002B00D0C8
:104E3000FCE110339843002900D1F7E100239946A3
:104E400043460593534604930D9B0690039300231A
:104E5000D2E0582808D0622867D102239C4600235C
:104E60000F9302330D93BBE720231A43103B9C465C
:104E700000230F9310330D93B2E780231B011A43D5
:104E800020231A43A1E6C0239B001A43F31C994632
:104E9000B07882E5C0231A43F31C9946B0787CE5CC
:104EA00035005E46BB464F4657E64346012B00D8C9
:104EB00063E1631E43449A463300B9462E005F46C1
:104EC00055469B46A24622004B460134390020201D
:104ED000B047AC42F7D135005E46BB464F46A146CF
:104EE00054460C9B4A46187859463B004444A84710
:104EF000D7E6A1460F9B984500D832E64444E41A11
:104F00003300B8462E005F4625004C4699462200E5
:104F10004346013439002020B047AC42F7D12C0081
:104F2000BB46350047464E461BE680231000DB009B
:104F300018401A4200D10FE1112118008A430D9246
:104F40000D9A802311009B0019408C461A4269D1AA
:104F5000802311005B00194089460C9904310F91A0
:104F60001A4200D0CAE113005B0600D5F0E013003E
:104F70001B0600D459E20C9B00229B5ED9175A18DD
:104F80004A4092B2D90F0C91002B00D1F9E11000E8
:104F900014AA944642461F23149252466344A846DC
:104FA00016944D460400B946B2461F00159201E022
:104FB000202D0FD020000A21FDF7B6FC01357E1907
:104FC0003031317020000A21FDF7AEFC26000400CC
:104FD000092EEDD8149B4F46A94645469846159B89
:104FE00056469A46169C0D9B069343460593534698
:104FF00004930A2303930C9B02934B4601931CAB2F
:105000002200009359463B002800FEF747FE0F9B05
:1050100004000C9372E4C046ED3B00100C239A434D
:105020001000E7E607220C9B0733934301329446B6
:105030009C4462460C920CCBD90F0F91110019437E
:1050400000D191E0D9171391129151401091139909
:105050005940119110981199129A139B801A9941F5
:105060001090119114AA0023944642469946149236
:1050700052461F336344A846B24616944E46109CCF
:10508000119DB94615921F0001E0202E10D020007E
:1050900029000A220023FDF785FC013630322B005F
:1050A000BA550D0022000400002BEED1092AECD8DD
:1050B000149B1094119545469846159B4F46B14652
:1050C00056469A46169C0D9B0693434605935346B7
:1050D00004930A2303930F9B02934B4601931CAB4B
:1050E0002200009359463B002800FEF7D7FD04003C
:1050F000FFF704FC0F9B984500D8C1E18023DB003B
:105100000D9343460F9A1B199B1A994633002E00A4
:105110004D46B9465F469B460C9122004B460134F2
:1051200039002020B047AC42F7D143460C990133F7
:105130000F930B7835000C935E46BB464F46002B11
:1051400000D10EE50D9B002B00D1F6E4002319E6FB
:105150000C9B1B781A0015E710239A430D92EFE67B
:105160000C9B1B78099361E6002399460028AAD17D
:10517000002200231092119374E70C9B22001878F0
:1051800059463B00A8474C468BE50C9AFA3BFF3B3F
:1051900007329A430133994691444B460C93136866
:1051A000526815921A4306D1103290430022099298
:1051B000002900D081E06122810600D54122D2B2CF
:1051C0000A9214AA91460A9A00210A3A1492424677
:1051D0001792524618925A460991B3461F311E0043
:1051E0000F9B4944BA4619941A950024674698467D
:1051F0008946159D16901B920AE03032D2B24B467A
:1052000001341A55A8454AD0202C4AD006000D007A
:105210003A00002330002900FDF7C4FBD2B2092A6E
:10522000EBD9149B9C466244D2B2E8E76123820624
:1052300000D54123DBB20A3B0C93434614A91F223D
:105240008C46159353466244A046B2464C46179787
:10525000A9461700099D0D9E1490169308E030335F
:10526000DBB201343B55B5420ED3202C0CD00500E7
:1052700031002800FDF758FBCBB20929EFD90C9A71
:1052800094466344DBB2ECE7159B4D46A146444689
:105290009846169B564614989A46179FD0E5B742F3
:1052A000B2D9179B57469846189B5E469A461B9B59
:1052B00009949B461698199C1A9D4346059353469C
:1052C00004930D9B0690039300230293099B05E72B
:1052D0000F9B984500D914E701330F932DE4102359
:1052E000110099430D91692800D0BAE08023100085
:1052F000DB0018401A4200D122E61DE60C9B1B6819
:10530000DA0F1100002B00D18CE0DA17981850400A
:1053100014AA914642461F23149252464B44A0467B
:10532000A946169704006546B2461F000C911592D7
:1053300001E0202D0FD020000A21FDF7F5FA0135FC
:105340007E193031317020000A21FDF7EDFA260078
:105350000400092EEDD8149B444698460C9BAC469D
:105360001900159B56464D469A46169F0D9B029175
:10537000069343460593534604930A2303936346D7
:105380003CE6002800D02EE602E60C9B1B689946FE
:10539000002B03D110339843002938D161238206B2
:1053A00000D54123DBB20A3B0C9343461693534688
:1053B00014A91F228C4617932B006244A0464D4629
:1053C000B246189799461700149C0D9E159008E058
:1053D0003033DBB201343B55B5420ED3202C0CD018
:1053E000050031002800FDF79FFACBB20929EFD95B
:1053F0000C9A94466344DBB2ECE7169B1494444643
:105400009846179B56464D469A461598189F434610
:105410000593534604930D9B069003930023029338
:10542000149BEBE50028A1D172E70C9B1B68D917F0
:105430005A184A40A6E580231000DB0018409C461D
:105440000F901A420FD00220030013400F93104216
:1054500019D00023A1460F934CE50C9B1B680993C0
:10546000E4E40A0034E40223180010400D901342D3
:1054700000D03EE54346002B00D042E6FFF771FB2B
:1054800001330F937FE463460D93F3E70EB40122DB
:1054900030B584B007AC08CC064D0100009428005C
:1054A00052420394FFF702FA04B030BC08BC03B0C8
:1054B0001847C046E53B001010B50C0084B00394BB
:1054C000012402A902900093034813006242FFF7EF
:1054D000EDF904B010BDC046793E001010B5094A80
:1054E0000300146884B0002C08D001220091064803
:1054F000524203A9A047012004B010BD00F096F964
:105500000020F9E774570020693E001000BEFDE757
:10551000094A03001068002805D00849C3188B42C7
:1055200007D81360704706480449C31810608B42BF
:10553000F7D901204042F5E75C5300200000042029
:10554000D072002010B5FFF7E1FFC04670B5FDF73F
:1055500085F8074D074EB54209D20024013E761B5F
:10556000B60808CD984723000134B342F9D170BD85
:1055700094B4001098B40010030010B50800110096
:105580001B68984710BDC046F0B5C64600B5437DC0
:1055900007000C001600002B46D0002A17DD0B7800
:1055A0000A2B24D000239846012E13D00125290070
:1055B000635C01350A2B26D0B542F8D1464509DC9B
:1055C000A419013C23780D3B5A4253413B7580BCE2
:1055D000B846F0BD4346E018A419F11A013C3B68F7
:1055E000984723780D3B5A4253413B75EFE7037DC3
:1055F000002BD7D102210F483B689847012EDFD0FE
:1056000001239846D2E7631E5B5C0D2BD4D08845FE
:1056100004DA4346C91AE0183B6898470221054856
:105620003B68A8469847C7E70368110020009847E1
:10563000CDE7C04658BC0010F0B5C6460B68060062
:105640000C0000B5802B06D05A1C2260E41826718D
:1056500080BCB846F0BD0F4B1D68002D16D00B1D49
:1056600098460D4F02E02D69002D0FD02B68002BBE
:10567000F9D03B68002B01D0AB42F4D12800414661
:105680002268FFF781FF2D69002DEFD10122002351
:10569000DBE7C046405300204C530020F0B54546A0
:1056A000DE464E465746E0B583B091461C00804624
:1056B0000D00FCF789FB0023304A12184B41002BE8
:1056C00002DA01222E4B52422E4908008A4605F08A
:1056D00083FE07006B1C03D1404605F0B1FC0500BA
:1056E000002C27D0284E294B1C68002C18D04B4684
:1056F000002B21D1264B994602E02469002C0FD0C3
:105700002368002BF9D04B461B68002B01D09C422C
:10571000F3D120002A004146B0472469002CEFD184
:10572000002F26D1280003B0F0BCBB46B246A946E4
:10573000A046F0BD174ED6E7154B99460A239B4667
:1057400002E02469002CEBD02368002BF9D04B46F3
:105750001B68002B01D0A342F3D12A004146200050
:10576000B0476B465A462000DA71D91D0122B04776
:10577000E7E7504605F0E8FDD4E7C04640420F0099
:10578000FFFFFF7F08420020895500104053002092
:105790004C53002079550010F0B5CE46474680B5F1
:1057A00083B06B460600DD1D2870FCF70DFB00235F
:1057B000194A12184B41002B02DA0122174B5242B0
:1057C00017490800884605F007FE164B81461C68FD
:1057D000002C14D0144F02E02469002C0FD0236851
:1057E000002BF9D03B68002B01D09C42F4D1200063
:1057F00001222900FFF7C8FE2469002CEFD14B4697
:10580000002B05D1300003B0C0BCB946B046F0BD96
:10581000404605F099FDF5E740420F00FFFFFF7F8E
:1058200008420020405300204C53002070B5040073
:1058300005F006FC01230100050001222000FFF70E
:105840002DFF084B1C68002C06D06368002B05D088
:1058500098472469002CF8D1280070BD2469002CD9
:10586000F3D1F9E740530020F0B5CE46474680B566
:10587000A3B004000D00FCF7A7FA0023274A121872
:105880004B41002B02DA0122254B5242254E3000BB
:1058900005F0A2FD00232200019307002B002248FF
:1058A00001A9FFF709FE214B804699461C68019B20
:1058B000002B1AD0002C2FD01D4D02E02469002CA3
:1058C0000FD02368002BF9D02B68002B01D0A34206
:1058D000F4D12000019A02A9FFF756FE2469002C9A
:1058E000EFD14B461C6800230193002C06D063685F
:1058F000002B0BD098472469002CF8D1002F07D13A
:10590000404623B0C0BCB946B046F0BD2469ECE7C0
:10591000300005F019FDF3E70194EFE740420F0076
:10592000FFFFFF7F0842002039560010405300203F
:105930004C5300200FB400B583B004A901C90191F4
:10594000FFF792FF03B008BC04B01847F0B5D64685
:105950004F4646461500C0B504000E003022002117
:1059600082B02800FEF732F9524A0120944673783B
:1059700063441B052360F378984000F0BDFEB178C6
:10598000F77889464C4911238846F9028C464146EE
:1059900060469A462268494B0140D3181B0DDB0034
:1059A0004B44DB030B4351460B434946081DA021E2
:1059B000C9058C4680001018BA01624413613D4B42
:1059C00050609C464B467078E7606044000520605C
:1059D0006360337963441B05236173796361B37931
:1059E000E3613378AB70F27B002A59D10133DBB22B
:1059F000EB70EB78324B334F9C46334B6146276458
:105A0000E16363642A73B3894946238700F036FC57
:105A10006169206900F032FCE169206900F02EFC28
:105A20002A003100200005F007FDA8780121C0B24E
:105A3000FBF72AFAE8780121C0B2FBF725FAA8782B
:105A40000321C0B2FBF730FAE8780321C0B2FBF7BC
:105A50002BFA0121282300222970EA546A461B4BA5
:105A600001A81B49938005F0AFFC6A465A2301A8A0
:105A70001849537105F0A8FC6A461E2301A816496F
:105A8000537105F0A1FC3C236A46144901A85371E7
:105A900005F09AFC02B0E0BCBA46B146A846F0BD9B
:105AA000013BDBB2EB70AB78074B0D4F9C46044BD0
:105AB000A4E7C04602050000FF7FE0FF0000E0AF62
:105AC000302200201C2200200822002080D2FFFF6C
:105AD000045300207C570020BC7200209C710020E1
